{
	"contracts/SimpleStorage.sol": {
		"SimpleStorage": {
			"abi": [
				{
					"anonymous": false,
					"inputs": [
						{
							"indexed": true,
							"internalType": "address",
							"name": "user",
							"type": "address"
						},
						{
							"indexed": false,
							"internalType": "string",
							"name": "name",
							"type": "string"
						},
						{
							"indexed": false,
							"internalType": "uint256",
							"name": "age",
							"type": "uint256"
						}
					],
					"name": "ProfileUpdated",
					"type": "event"
				},
				{
					"inputs": [
						{
							"internalType": "address",
							"name": "_user",
							"type": "address"
						}
					],
					"name": "getProfile",
					"outputs": [
						{
							"internalType": "string",
							"name": "",
							"type": "string"
						},
						{
							"internalType": "uint256",
							"name": "",
							"type": "uint256"
						}
					],
					"stateMutability": "view",
					"type": "function"
				},
				{
					"inputs": [
						{
							"internalType": "string",
							"name": "_name",
							"type": "string"
						},
						{
							"internalType": "uint256",
							"name": "_age",
							"type": "uint256"
						}
					],
					"name": "setProfile",
					"outputs": [],
					"stateMutability": "nonpayable",
					"type": "function"
				}
			],
			"devdoc": {
				"kind": "dev",
				"methods": {},
				"version": 1
			},
			"evm": {
				"assembly": "    /* \"contracts/SimpleStorage.sol\":61:844  contract SimpleStorage {... */\n  mstore(0x40, 0x80)\n  callvalue\n  dup1\n  iszero\n  tag_1\n  jumpi\n  revert(0x00, 0x00)\ntag_1:\n  pop\n  dataSize(sub_0)\n  dup1\n  dataOffset(sub_0)\n  0x00\n  codecopy\n  0x00\n  return\nstop\n\nsub_0: assembly {\n        /* \"contracts/SimpleStorage.sol\":61:844  contract SimpleStorage {... */\n      mstore(0x40, 0x80)\n      callvalue\n      dup1\n      iszero\n      tag_1\n      jumpi\n      revert(0x00, 0x00)\n    tag_1:\n      pop\n      jumpi(tag_2, lt(calldatasize, 0x04))\n      shr(0xe0, calldataload(0x00))\n      dup1\n      0x0f53a470\n      eq\n      tag_3\n      jumpi\n      dup1\n      0x625fc535\n      eq\n      tag_4\n      jumpi\n    tag_2:\n      revert(0x00, 0x00)\n        /* \"contracts/SimpleStorage.sol\":673:841  function getProfile(address _user) external view returns (string memory, uint256) {... */\n    tag_3:\n      tag_5\n      0x04\n      dup1\n      calldatasize\n      sub\n      dup2\n      add\n      swap1\n      tag_6\n      swap2\n      swap1\n      tag_7\n      jump\t// in\n    tag_6:\n      tag_8\n      jump\t// in\n    tag_5:\n      mload(0x40)\n      tag_9\n      swap3\n      swap2\n      swap1\n      tag_10\n      jump\t// in\n    tag_9:\n      mload(0x40)\n      dup1\n      swap2\n      sub\n      swap1\n      return\n        /* \"contracts/SimpleStorage.sol\":436:619  function setProfile(string calldata _name, uint256 _age) external {... */\n    tag_4:\n      tag_11\n      0x04\n      dup1\n      calldatasize\n      sub\n      dup2\n      add\n      swap1\n      tag_12\n      swap2\n      swap1\n      tag_13\n      jump\t// in\n    tag_12:\n      tag_14\n      jump\t// in\n    tag_11:\n      stop\n        /* \"contracts/SimpleStorage.sol\":673:841  function getProfile(address _user) external view returns (string memory, uint256) {... */\n    tag_8:\n        /* \"contracts/SimpleStorage.sol\":731:744  string memory */\n      0x60\n        /* \"contracts/SimpleStorage.sol\":746:753  uint256 */\n      0x00\n        /* \"contracts/SimpleStorage.sol\":766:782  Profile memory p */\n      0x00\n        /* \"contracts/SimpleStorage.sol\":785:793  profiles */\n      0x00\n        /* \"contracts/SimpleStorage.sol\":785:800  profiles[_user] */\n      0x00\n        /* \"contracts/SimpleStorage.sol\":794:799  _user */\n      dup6\n        /* \"contracts/SimpleStorage.sol\":785:800  profiles[_user] */\n      0xffffffffffffffffffffffffffffffffffffffff\n      and\n      0xffffffffffffffffffffffffffffffffffffffff\n      and\n      dup2\n      mstore\n      0x20\n      add\n      swap1\n      dup2\n      mstore\n      0x20\n      add\n      0x00\n      keccak256\n        /* \"contracts/SimpleStorage.sol\":766:800  Profile memory p = profiles[_user] */\n      mload(0x40)\n      dup1\n      0x40\n      add\n      0x40\n      mstore\n      swap1\n      dup2\n      0x00\n      dup3\n      add\n      dup1\n      sload\n      tag_16\n      swap1\n      tag_17\n      jump\t// in\n    tag_16:\n      dup1\n      0x1f\n      add\n      0x20\n      dup1\n      swap2\n      div\n      mul\n      0x20\n      add\n      mload(0x40)\n      swap1\n      dup2\n      add\n      0x40\n      mstore\n      dup1\n      swap3\n      swap2\n      swap1\n      dup2\n      dup2\n      mstore\n      0x20\n      add\n      dup3\n      dup1\n      sload\n      tag_18\n      swap1\n      tag_17\n      jump\t// in\n    tag_18:\n      dup1\n      iszero\n      tag_19\n      jumpi\n      dup1\n      0x1f\n      lt\n      tag_20\n      jumpi\n      0x0100\n      dup1\n      dup4\n      sload\n      div\n      mul\n      dup4\n      mstore\n      swap2\n      0x20\n      add\n      swap2\n      jump(tag_19)\n    tag_20:\n      dup3\n      add\n      swap2\n      swap1\n      0x00\n      mstore\n      keccak256(0x00, 0x20)\n      swap1\n    tag_21:\n      dup2\n      sload\n      dup2\n      mstore\n      swap1\n      0x01\n      add\n      swap1\n      0x20\n      add\n      dup1\n      dup4\n      gt\n      tag_21\n      jumpi\n      dup3\n      swap1\n      sub\n      0x1f\n      and\n      dup3\n      add\n      swap2\n    tag_19:\n      pop\n      pop\n      pop\n      pop\n      pop\n      dup2\n      mstore\n      0x20\n      add\n      0x01\n      dup3\n      add\n      sload\n      dup2\n      mstore\n      pop\n      pop\n      swap1\n      pop\n        /* \"contracts/SimpleStorage.sol\":819:820  p */\n      dup1\n        /* \"contracts/SimpleStorage.sol\":819:825  p.name */\n      0x00\n      add\n      mload\n        /* \"contracts/SimpleStorage.sol\":827:828  p */\n      dup2\n        /* \"contracts/SimpleStorage.sol\":827:832  p.age */\n      0x20\n      add\n      mload\n        /* \"contracts/SimpleStorage.sol\":811:833  return (p.name, p.age) */\n      swap3\n      pop\n      swap3\n      pop\n      pop\n        /* \"contracts/SimpleStorage.sol\":673:841  function getProfile(address _user) external view returns (string memory, uint256) {... */\n      swap2\n      pop\n      swap2\n      jump\t// out\n        /* \"contracts/SimpleStorage.sol\":436:619  function setProfile(string calldata _name, uint256 _age) external {... */\n    tag_14:\n        /* \"contracts/SimpleStorage.sol\":536:556  Profile(_name, _age) */\n      mload(0x40)\n      dup1\n      0x40\n      add\n      0x40\n      mstore\n      dup1\n        /* \"contracts/SimpleStorage.sol\":544:549  _name */\n      dup5\n      dup5\n        /* \"contracts/SimpleStorage.sol\":536:556  Profile(_name, _age) */\n      dup1\n      dup1\n      0x1f\n      add\n      0x20\n      dup1\n      swap2\n      div\n      mul\n      0x20\n      add\n      mload(0x40)\n      swap1\n      dup2\n      add\n      0x40\n      mstore\n      dup1\n      swap4\n      swap3\n      swap2\n      swap1\n      dup2\n      dup2\n      mstore\n      0x20\n      add\n      dup4\n      dup4\n      dup1\n      dup3\n      dup5\n      calldatacopy\n      0x00\n      dup2\n      dup5\n      add\n      mstore\n      not(0x1f)\n      0x1f\n      dup3\n      add\n      and\n      swap1\n      pop\n      dup1\n      dup4\n      add\n      swap3\n      pop\n      pop\n      pop\n      pop\n      pop\n      pop\n      pop\n      dup2\n      mstore\n      0x20\n      add\n        /* \"contracts/SimpleStorage.sol\":551:555  _age */\n      dup3\n        /* \"contracts/SimpleStorage.sol\":536:556  Profile(_name, _age) */\n      dup2\n      mstore\n      pop\n        /* \"contracts/SimpleStorage.sol\":513:521  profiles */\n      0x00\n        /* \"contracts/SimpleStorage.sol\":513:533  profiles[msg.sender] */\n      0x00\n        /* \"contracts/SimpleStorage.sol\":522:532  msg.sender */\n      caller\n        /* \"contracts/SimpleStorage.sol\":513:533  profiles[msg.sender] */\n      0xffffffffffffffffffffffffffffffffffffffff\n      and\n      0xffffffffffffffffffffffffffffffffffffffff\n      and\n      dup2\n      mstore\n      0x20\n      add\n      swap1\n      dup2\n      mstore\n      0x20\n      add\n      0x00\n      keccak256\n        /* \"contracts/SimpleStorage.sol\":513:556  profiles[msg.sender] = Profile(_name, _age) */\n      0x00\n      dup3\n      add\n      mload\n      dup2\n      0x00\n      add\n      swap1\n      dup2\n      tag_23\n      swap2\n      swap1\n      tag_24\n      jump\t// in\n    tag_23:\n      pop\n      0x20\n      dup3\n      add\n      mload\n      dup2\n      0x01\n      add\n      sstore\n      swap1\n      pop\n      pop\n        /* \"contracts/SimpleStorage.sol\":587:597  msg.sender */\n      caller\n        /* \"contracts/SimpleStorage.sol\":572:611  ProfileUpdated(msg.sender, _name, _age) */\n      0xffffffffffffffffffffffffffffffffffffffff\n      and\n      0xdcb94c0b2c025b0736b4b62b1c595f2ca7ad4c711eada6026d477e87de9cca08\n        /* \"contracts/SimpleStorage.sol\":599:604  _name */\n      dup5\n      dup5\n        /* \"contracts/SimpleStorage.sol\":606:610  _age */\n      dup5\n        /* \"contracts/SimpleStorage.sol\":572:611  ProfileUpdated(msg.sender, _name, _age) */\n      mload(0x40)\n      tag_25\n      swap4\n      swap3\n      swap2\n      swap1\n      tag_26\n      jump\t// in\n    tag_25:\n      mload(0x40)\n      dup1\n      swap2\n      sub\n      swap1\n      log2\n        /* \"contracts/SimpleStorage.sol\":436:619  function setProfile(string calldata _name, uint256 _age) external {... */\n      pop\n      pop\n      pop\n      jump\t// out\n        /* \"#utility.yul\":88:205   */\n    tag_28:\n        /* \"#utility.yul\":197:198   */\n      0x00\n        /* \"#utility.yul\":194:195   */\n      0x00\n        /* \"#utility.yul\":187:199   */\n      revert\n        /* \"#utility.yul\":211:328   */\n    tag_29:\n        /* \"#utility.yul\":320:321   */\n      0x00\n        /* \"#utility.yul\":317:318   */\n      0x00\n        /* \"#utility.yul\":310:322   */\n      revert\n        /* \"#utility.yul\":334:460   */\n    tag_30:\n        /* \"#utility.yul\":371:378   */\n      0x00\n        /* \"#utility.yul\":411:453   */\n      0xffffffffffffffffffffffffffffffffffffffff\n        /* \"#utility.yul\":404:409   */\n      dup3\n        /* \"#utility.yul\":400:454   */\n      and\n        /* \"#utility.yul\":389:454   */\n      swap1\n      pop\n        /* \"#utility.yul\":334:460   */\n      swap2\n      swap1\n      pop\n      jump\t// out\n        /* \"#utility.yul\":466:562   */\n    tag_31:\n        /* \"#utility.yul\":503:510   */\n      0x00\n        /* \"#utility.yul\":532:556   */\n      tag_72\n        /* \"#utility.yul\":550:555   */\n      dup3\n        /* \"#utility.yul\":532:556   */\n      tag_30\n      jump\t// in\n    tag_72:\n        /* \"#utility.yul\":521:556   */\n      swap1\n      pop\n        /* \"#utility.yul\":466:562   */\n      swap2\n      swap1\n      pop\n      jump\t// out\n        /* \"#utility.yul\":568:690   */\n    tag_32:\n        /* \"#utility.yul\":641:665   */\n      tag_74\n        /* \"#utility.yul\":659:664   */\n      dup2\n        /* \"#utility.yul\":641:665   */\n      tag_31\n      jump\t// in\n    tag_74:\n        /* \"#utility.yul\":634:639   */\n      dup2\n        /* \"#utility.yul\":631:666   */\n      eq\n        /* \"#utility.yul\":621:684   */\n      tag_75\n      jumpi\n        /* \"#utility.yul\":680:681   */\n      0x00\n        /* \"#utility.yul\":677:678   */\n      0x00\n        /* \"#utility.yul\":670:682   */\n      revert\n        /* \"#utility.yul\":621:684   */\n    tag_75:\n        /* \"#utility.yul\":568:690   */\n      pop\n      jump\t// out\n        /* \"#utility.yul\":696:835   */\n    tag_33:\n        /* \"#utility.yul\":742:747   */\n      0x00\n        /* \"#utility.yul\":780:786   */\n      dup2\n        /* \"#utility.yul\":767:787   */\n      calldataload\n        /* \"#utility.yul\":758:787   */\n      swap1\n      pop\n        /* \"#utility.yul\":796:829   */\n      tag_77\n        /* \"#utility.yul\":823:828   */\n      dup2\n        /* \"#utility.yul\":796:829   */\n      tag_32\n      jump\t// in\n    tag_77:\n        /* \"#utility.yul\":696:835   */\n      swap3\n      swap2\n      pop\n      pop\n      jump\t// out\n        /* \"#utility.yul\":841:1170   */\n    tag_7:\n        /* \"#utility.yul\":900:906   */\n      0x00\n        /* \"#utility.yul\":949:951   */\n      0x20\n        /* \"#utility.yul\":937:946   */\n      dup3\n        /* \"#utility.yul\":928:935   */\n      dup5\n        /* \"#utility.yul\":924:947   */\n      sub\n        /* \"#utility.yul\":920:952   */\n      slt\n        /* \"#utility.yul\":917:1036   */\n      iszero\n      tag_79\n      jumpi\n        /* \"#utility.yul\":955:1034   */\n      tag_80\n      tag_28\n      jump\t// in\n    tag_80:\n        /* \"#utility.yul\":917:1036   */\n    tag_79:\n        /* \"#utility.yul\":1075:1076   */\n      0x00\n        /* \"#utility.yul\":1100:1153   */\n      tag_81\n        /* \"#utility.yul\":1145:1152   */\n      dup5\n        /* \"#utility.yul\":1136:1142   */\n      dup3\n        /* \"#utility.yul\":1125:1134   */\n      dup6\n        /* \"#utility.yul\":1121:1143   */\n      add\n        /* \"#utility.yul\":1100:1153   */\n      tag_33\n      jump\t// in\n    tag_81:\n        /* \"#utility.yul\":1090:1153   */\n      swap2\n      pop\n        /* \"#utility.yul\":1046:1163   */\n      pop\n        /* \"#utility.yul\":841:1170   */\n      swap3\n      swap2\n      pop\n      pop\n      jump\t// out\n        /* \"#utility.yul\":1176:1275   */\n    tag_34:\n        /* \"#utility.yul\":1228:1234   */\n      0x00\n        /* \"#utility.yul\":1262:1267   */\n      dup2\n        /* \"#utility.yul\":1256:1268   */\n      mload\n        /* \"#utility.yul\":1246:1268   */\n      swap1\n      pop\n        /* \"#utility.yul\":1176:1275   */\n      swap2\n      swap1\n      pop\n      jump\t// out\n        /* \"#utility.yul\":1281:1450   */\n    tag_35:\n        /* \"#utility.yul\":1365:1376   */\n      0x00\n        /* \"#utility.yul\":1399:1405   */\n      dup3\n        /* \"#utility.yul\":1394:1397   */\n      dup3\n        /* \"#utility.yul\":1387:1406   */\n      mstore\n        /* \"#utility.yul\":1439:1443   */\n      0x20\n        /* \"#utility.yul\":1434:1437   */\n      dup3\n        /* \"#utility.yul\":1430:1444   */\n      add\n        /* \"#utility.yul\":1415:1444   */\n      swap1\n      pop\n        /* \"#utility.yul\":1281:1450   */\n      swap3\n      swap2\n      pop\n      pop\n      jump\t// out\n        /* \"#utility.yul\":1456:1595   */\n    tag_36:\n        /* \"#utility.yul\":1545:1551   */\n      dup3\n        /* \"#utility.yul\":1540:1543   */\n      dup2\n        /* \"#utility.yul\":1535:1538   */\n      dup4\n        /* \"#utility.yul\":1529:1552   */\n      mcopy\n        /* \"#utility.yul\":1586:1587   */\n      0x00\n        /* \"#utility.yul\":1577:1583   */\n      dup4\n        /* \"#utility.yul\":1572:1575   */\n      dup4\n        /* \"#utility.yul\":1568:1584   */\n      add\n        /* \"#utility.yul\":1561:1588   */\n      mstore\n        /* \"#utility.yul\":1456:1595   */\n      pop\n      pop\n      pop\n      jump\t// out\n        /* \"#utility.yul\":1601:1703   */\n    tag_37:\n        /* \"#utility.yul\":1642:1648   */\n      0x00\n        /* \"#utility.yul\":1693:1695   */\n      0x1f\n        /* \"#utility.yul\":1689:1696   */\n      not\n        /* \"#utility.yul\":1684:1686   */\n      0x1f\n        /* \"#utility.yul\":1677:1682   */\n      dup4\n        /* \"#utility.yul\":1673:1687   */\n      add\n        /* \"#utility.yul\":1669:1697   */\n      and\n        /* \"#utility.yul\":1659:1697   */\n      swap1\n      pop\n        /* \"#utility.yul\":1601:1703   */\n      swap2\n      swap1\n      pop\n      jump\t// out\n        /* \"#utility.yul\":1709:2086   */\n    tag_38:\n        /* \"#utility.yul\":1797:1800   */\n      0x00\n        /* \"#utility.yul\":1825:1864   */\n      tag_87\n        /* \"#utility.yul\":1858:1863   */\n      dup3\n        /* \"#utility.yul\":1825:1864   */\n      tag_34\n      jump\t// in\n    tag_87:\n        /* \"#utility.yul\":1880:1951   */\n      tag_88\n        /* \"#utility.yul\":1944:1950   */\n      dup2\n        /* \"#utility.yul\":1939:1942   */\n      dup6\n        /* \"#utility.yul\":1880:1951   */\n      tag_35\n      jump\t// in\n    tag_88:\n        /* \"#utility.yul\":1873:1951   */\n      swap4\n      pop\n        /* \"#utility.yul\":1960:2025   */\n      tag_89\n        /* \"#utility.yul\":2018:2024   */\n      dup2\n        /* \"#utility.yul\":2013:2016   */\n      dup6\n        /* \"#utility.yul\":2006:2010   */\n      0x20\n        /* \"#utility.yul\":1999:2004   */\n      dup7\n        /* \"#utility.yul\":1995:2011   */\n      add\n        /* \"#utility.yul\":1960:2025   */\n      tag_36\n      jump\t// in\n    tag_89:\n        /* \"#utility.yul\":2050:2079   */\n      tag_90\n        /* \"#utility.yul\":2072:2078   */\n      dup2\n        /* \"#utility.yul\":2050:2079   */\n      tag_37\n      jump\t// in\n    tag_90:\n        /* \"#utility.yul\":2045:2048   */\n      dup5\n        /* \"#utility.yul\":2041:2080   */\n      add\n        /* \"#utility.yul\":2034:2080   */\n      swap2\n      pop\n        /* \"#utility.yul\":1801:2086   */\n      pop\n        /* \"#utility.yul\":1709:2086   */\n      swap3\n      swap2\n      pop\n      pop\n      jump\t// out\n        /* \"#utility.yul\":2092:2169   */\n    tag_39:\n        /* \"#utility.yul\":2129:2136   */\n      0x00\n        /* \"#utility.yul\":2158:2163   */\n      dup2\n        /* \"#utility.yul\":2147:2163   */\n      swap1\n      pop\n        /* \"#utility.yul\":2092:2169   */\n      swap2\n      swap1\n      pop\n      jump\t// out\n        /* \"#utility.yul\":2175:2293   */\n    tag_40:\n        /* \"#utility.yul\":2262:2286   */\n      tag_93\n        /* \"#utility.yul\":2280:2285   */\n      dup2\n        /* \"#utility.yul\":2262:2286   */\n      tag_39\n      jump\t// in\n    tag_93:\n        /* \"#utility.yul\":2257:2260   */\n      dup3\n        /* \"#utility.yul\":2250:2287   */\n      mstore\n        /* \"#utility.yul\":2175:2293   */\n      pop\n      pop\n      jump\t// out\n        /* \"#utility.yul\":2299:2722   */\n    tag_10:\n        /* \"#utility.yul\":2440:2444   */\n      0x00\n        /* \"#utility.yul\":2478:2480   */\n      0x40\n        /* \"#utility.yul\":2467:2476   */\n      dup3\n        /* \"#utility.yul\":2463:2481   */\n      add\n        /* \"#utility.yul\":2455:2481   */\n      swap1\n      pop\n        /* \"#utility.yul\":2527:2536   */\n      dup2\n        /* \"#utility.yul\":2521:2525   */\n      dup2\n        /* \"#utility.yul\":2517:2537   */\n      sub\n        /* \"#utility.yul\":2513:2514   */\n      0x00\n        /* \"#utility.yul\":2502:2511   */\n      dup4\n        /* \"#utility.yul\":2498:2515   */\n      add\n        /* \"#utility.yul\":2491:2538   */\n      mstore\n        /* \"#utility.yul\":2555:2633   */\n      tag_95\n        /* \"#utility.yul\":2628:2632   */\n      dup2\n        /* \"#utility.yul\":2619:2625   */\n      dup6\n        /* \"#utility.yul\":2555:2633   */\n      tag_38\n      jump\t// in\n    tag_95:\n        /* \"#utility.yul\":2547:2633   */\n      swap1\n      pop\n        /* \"#utility.yul\":2643:2715   */\n      tag_96\n        /* \"#utility.yul\":2711:2713   */\n      0x20\n        /* \"#utility.yul\":2700:2709   */\n      dup4\n        /* \"#utility.yul\":2696:2714   */\n      add\n        /* \"#utility.yul\":2687:2693   */\n      dup5\n        /* \"#utility.yul\":2643:2715   */\n      tag_40\n      jump\t// in\n    tag_96:\n        /* \"#utility.yul\":2299:2722   */\n      swap4\n      swap3\n      pop\n      pop\n      pop\n      jump\t// out\n        /* \"#utility.yul\":2728:2845   */\n    tag_41:\n        /* \"#utility.yul\":2837:2838   */\n      0x00\n        /* \"#utility.yul\":2834:2835   */\n      0x00\n        /* \"#utility.yul\":2827:2839   */\n      revert\n        /* \"#utility.yul\":2851:2968   */\n    tag_42:\n        /* \"#utility.yul\":2960:2961   */\n      0x00\n        /* \"#utility.yul\":2957:2958   */\n      0x00\n        /* \"#utility.yul\":2950:2962   */\n      revert\n        /* \"#utility.yul\":2974:3091   */\n    tag_43:\n        /* \"#utility.yul\":3083:3084   */\n      0x00\n        /* \"#utility.yul\":3080:3081   */\n      0x00\n        /* \"#utility.yul\":3073:3085   */\n      revert\n        /* \"#utility.yul\":3111:3664   */\n    tag_44:\n        /* \"#utility.yul\":3169:3177   */\n      0x00\n        /* \"#utility.yul\":3179:3185   */\n      0x00\n        /* \"#utility.yul\":3229:3232   */\n      dup4\n        /* \"#utility.yul\":3222:3226   */\n      0x1f\n        /* \"#utility.yul\":3214:3220   */\n      dup5\n        /* \"#utility.yul\":3210:3227   */\n      add\n        /* \"#utility.yul\":3206:3233   */\n      slt\n        /* \"#utility.yul\":3196:3318   */\n      tag_101\n      jumpi\n        /* \"#utility.yul\":3237:3316   */\n      tag_102\n      tag_41\n      jump\t// in\n    tag_102:\n        /* \"#utility.yul\":3196:3318   */\n    tag_101:\n        /* \"#utility.yul\":3350:3356   */\n      dup3\n        /* \"#utility.yul\":3337:3357   */\n      calldataload\n        /* \"#utility.yul\":3327:3357   */\n      swap1\n      pop\n        /* \"#utility.yul\":3380:3398   */\n      0xffffffffffffffff\n        /* \"#utility.yul\":3372:3378   */\n      dup2\n        /* \"#utility.yul\":3369:3399   */\n      gt\n        /* \"#utility.yul\":3366:3483   */\n      iszero\n      tag_103\n      jumpi\n        /* \"#utility.yul\":3402:3481   */\n      tag_104\n      tag_42\n      jump\t// in\n    tag_104:\n        /* \"#utility.yul\":3366:3483   */\n    tag_103:\n        /* \"#utility.yul\":3516:3520   */\n      0x20\n        /* \"#utility.yul\":3508:3514   */\n      dup4\n        /* \"#utility.yul\":3504:3521   */\n      add\n        /* \"#utility.yul\":3492:3521   */\n      swap2\n      pop\n        /* \"#utility.yul\":3570:3573   */\n      dup4\n        /* \"#utility.yul\":3562:3566   */\n      0x01\n        /* \"#utility.yul\":3554:3560   */\n      dup3\n        /* \"#utility.yul\":3550:3567   */\n      mul\n        /* \"#utility.yul\":3540:3548   */\n      dup4\n        /* \"#utility.yul\":3536:3568   */\n      add\n        /* \"#utility.yul\":3533:3574   */\n      gt\n        /* \"#utility.yul\":3530:3658   */\n      iszero\n      tag_105\n      jumpi\n        /* \"#utility.yul\":3577:3656   */\n      tag_106\n      tag_43\n      jump\t// in\n    tag_106:\n        /* \"#utility.yul\":3530:3658   */\n    tag_105:\n        /* \"#utility.yul\":3111:3664   */\n      swap3\n      pop\n      swap3\n      swap1\n      pop\n      jump\t// out\n        /* \"#utility.yul\":3670:3792   */\n    tag_45:\n        /* \"#utility.yul\":3743:3767   */\n      tag_108\n        /* \"#utility.yul\":3761:3766   */\n      dup2\n        /* \"#utility.yul\":3743:3767   */\n      tag_39\n      jump\t// in\n    tag_108:\n        /* \"#utility.yul\":3736:3741   */\n      dup2\n        /* \"#utility.yul\":3733:3768   */\n      eq\n        /* \"#utility.yul\":3723:3786   */\n      tag_109\n      jumpi\n        /* \"#utility.yul\":3782:3783   */\n      0x00\n        /* \"#utility.yul\":3779:3780   */\n      0x00\n        /* \"#utility.yul\":3772:3784   */\n      revert\n        /* \"#utility.yul\":3723:3786   */\n    tag_109:\n        /* \"#utility.yul\":3670:3792   */\n      pop\n      jump\t// out\n        /* \"#utility.yul\":3798:3937   */\n    tag_46:\n        /* \"#utility.yul\":3844:3849   */\n      0x00\n        /* \"#utility.yul\":3882:3888   */\n      dup2\n        /* \"#utility.yul\":3869:3889   */\n      calldataload\n        /* \"#utility.yul\":3860:3889   */\n      swap1\n      pop\n        /* \"#utility.yul\":3898:3931   */\n      tag_111\n        /* \"#utility.yul\":3925:3930   */\n      dup2\n        /* \"#utility.yul\":3898:3931   */\n      tag_45\n      jump\t// in\n    tag_111:\n        /* \"#utility.yul\":3798:3937   */\n      swap3\n      swap2\n      pop\n      pop\n      jump\t// out\n        /* \"#utility.yul\":3943:4617   */\n    tag_13:\n        /* \"#utility.yul\":4023:4029   */\n      0x00\n        /* \"#utility.yul\":4031:4037   */\n      0x00\n        /* \"#utility.yul\":4039:4045   */\n      0x00\n        /* \"#utility.yul\":4088:4090   */\n      0x40\n        /* \"#utility.yul\":4076:4085   */\n      dup5\n        /* \"#utility.yul\":4067:4074   */\n      dup7\n        /* \"#utility.yul\":4063:4086   */\n      sub\n        /* \"#utility.yul\":4059:4091   */\n      slt\n        /* \"#utility.yul\":4056:4175   */\n      iszero\n      tag_113\n      jumpi\n        /* \"#utility.yul\":4094:4173   */\n      tag_114\n      tag_28\n      jump\t// in\n    tag_114:\n        /* \"#utility.yul\":4056:4175   */\n    tag_113:\n        /* \"#utility.yul\":4242:4243   */\n      0x00\n        /* \"#utility.yul\":4231:4240   */\n      dup5\n        /* \"#utility.yul\":4227:4244   */\n      add\n        /* \"#utility.yul\":4214:4245   */\n      calldataload\n        /* \"#utility.yul\":4272:4290   */\n      0xffffffffffffffff\n        /* \"#utility.yul\":4264:4270   */\n      dup2\n        /* \"#utility.yul\":4261:4291   */\n      gt\n        /* \"#utility.yul\":4258:4375   */\n      iszero\n      tag_115\n      jumpi\n        /* \"#utility.yul\":4294:4373   */\n      tag_116\n      tag_29\n      jump\t// in\n    tag_116:\n        /* \"#utility.yul\":4258:4375   */\n    tag_115:\n        /* \"#utility.yul\":4407:4472   */\n      tag_117\n        /* \"#utility.yul\":4464:4471   */\n      dup7\n        /* \"#utility.yul\":4455:4461   */\n      dup3\n        /* \"#utility.yul\":4444:4453   */\n      dup8\n        /* \"#utility.yul\":4440:4462   */\n      add\n        /* \"#utility.yul\":4407:4472   */\n      tag_44\n      jump\t// in\n    tag_117:\n        /* \"#utility.yul\":4389:4472   */\n      swap4\n      pop\n      swap4\n      pop\n        /* \"#utility.yul\":4185:4482   */\n      pop\n        /* \"#utility.yul\":4521:4523   */\n      0x20\n        /* \"#utility.yul\":4547:4600   */\n      tag_118\n        /* \"#utility.yul\":4592:4599   */\n      dup7\n        /* \"#utility.yul\":4583:4589   */\n      dup3\n        /* \"#utility.yul\":4572:4581   */\n      dup8\n        /* \"#utility.yul\":4568:4590   */\n      add\n        /* \"#utility.yul\":4547:4600   */\n      tag_46\n      jump\t// in\n    tag_118:\n        /* \"#utility.yul\":4537:4600   */\n      swap2\n      pop\n        /* \"#utility.yul\":4492:4610   */\n      pop\n        /* \"#utility.yul\":3943:4617   */\n      swap3\n      pop\n      swap3\n      pop\n      swap3\n      jump\t// out\n        /* \"#utility.yul\":4623:4803   */\n    tag_47:\n        /* \"#utility.yul\":4671:4748   */\n      0x4e487b7100000000000000000000000000000000000000000000000000000000\n        /* \"#utility.yul\":4668:4669   */\n      0x00\n        /* \"#utility.yul\":4661:4749   */\n      mstore\n        /* \"#utility.yul\":4768:4772   */\n      0x22\n        /* \"#utility.yul\":4765:4766   */\n      0x04\n        /* \"#utility.yul\":4758:4773   */\n      mstore\n        /* \"#utility.yul\":4792:4796   */\n      0x24\n        /* \"#utility.yul\":4789:4790   */\n      0x00\n        /* \"#utility.yul\":4782:4797   */\n      revert\n        /* \"#utility.yul\":4809:5129   */\n    tag_17:\n        /* \"#utility.yul\":4853:4859   */\n      0x00\n        /* \"#utility.yul\":4890:4891   */\n      0x02\n        /* \"#utility.yul\":4884:4888   */\n      dup3\n        /* \"#utility.yul\":4880:4892   */\n      div\n        /* \"#utility.yul\":4870:4892   */\n      swap1\n      pop\n        /* \"#utility.yul\":4937:4938   */\n      0x01\n        /* \"#utility.yul\":4931:4935   */\n      dup3\n        /* \"#utility.yul\":4927:4939   */\n      and\n        /* \"#utility.yul\":4958:4976   */\n      dup1\n        /* \"#utility.yul\":4948:5029   */\n      tag_121\n      jumpi\n        /* \"#utility.yul\":5014:5018   */\n      0x7f\n        /* \"#utility.yul\":5006:5012   */\n      dup3\n        /* \"#utility.yul\":5002:5019   */\n      and\n        /* \"#utility.yul\":4992:5019   */\n      swap2\n      pop\n        /* \"#utility.yul\":4948:5029   */\n    tag_121:\n        /* \"#utility.yul\":5076:5078   */\n      0x20\n        /* \"#utility.yul\":5068:5074   */\n      dup3\n        /* \"#utility.yul\":5065:5079   */\n      lt\n        /* \"#utility.yul\":5045:5063   */\n      dup2\n        /* \"#utility.yul\":5042:5080   */\n      sub\n        /* \"#utility.yul\":5039:5123   */\n      tag_122\n      jumpi\n        /* \"#utility.yul\":5095:5113   */\n      tag_123\n      tag_47\n      jump\t// in\n    tag_123:\n        /* \"#utility.yul\":5039:5123   */\n    tag_122:\n        /* \"#utility.yul\":4860:5129   */\n      pop\n        /* \"#utility.yul\":4809:5129   */\n      swap2\n      swap1\n      pop\n      jump\t// out\n        /* \"#utility.yul\":5135:5315   */\n    tag_48:\n        /* \"#utility.yul\":5183:5260   */\n      0x4e487b7100000000000000000000000000000000000000000000000000000000\n        /* \"#utility.yul\":5180:5181   */\n      0x00\n        /* \"#utility.yul\":5173:5261   */\n      mstore\n        /* \"#utility.yul\":5280:5284   */\n      0x41\n        /* \"#utility.yul\":5277:5278   */\n      0x04\n        /* \"#utility.yul\":5270:5285   */\n      mstore\n        /* \"#utility.yul\":5304:5308   */\n      0x24\n        /* \"#utility.yul\":5301:5302   */\n      0x00\n        /* \"#utility.yul\":5294:5309   */\n      revert\n        /* \"#utility.yul\":5321:5462   */\n    tag_49:\n        /* \"#utility.yul\":5370:5374   */\n      0x00\n        /* \"#utility.yul\":5393:5396   */\n      dup2\n        /* \"#utility.yul\":5385:5396   */\n      swap1\n      pop\n        /* \"#utility.yul\":5416:5419   */\n      dup2\n        /* \"#utility.yul\":5413:5414   */\n      0x00\n        /* \"#utility.yul\":5406:5420   */\n      mstore\n        /* \"#utility.yul\":5450:5454   */\n      0x20\n        /* \"#utility.yul\":5447:5448   */\n      0x00\n        /* \"#utility.yul\":5437:5455   */\n      keccak256\n        /* \"#utility.yul\":5429:5455   */\n      swap1\n      pop\n        /* \"#utility.yul\":5321:5462   */\n      swap2\n      swap1\n      pop\n      jump\t// out\n        /* \"#utility.yul\":5468:5561   */\n    tag_50:\n        /* \"#utility.yul\":5505:5511   */\n      0x00\n        /* \"#utility.yul\":5552:5554   */\n      0x20\n        /* \"#utility.yul\":5547:5549   */\n      0x1f\n        /* \"#utility.yul\":5540:5545   */\n      dup4\n        /* \"#utility.yul\":5536:5550   */\n      add\n        /* \"#utility.yul\":5532:5555   */\n      div\n        /* \"#utility.yul\":5522:5555   */\n      swap1\n      pop\n        /* \"#utility.yul\":5468:5561   */\n      swap2\n      swap1\n      pop\n      jump\t// out\n        /* \"#utility.yul\":5567:5674   */\n    tag_51:\n        /* \"#utility.yul\":5611:5619   */\n      0x00\n        /* \"#utility.yul\":5661:5666   */\n      dup3\n        /* \"#utility.yul\":5655:5659   */\n      dup3\n        /* \"#utility.yul\":5651:5667   */\n      shl\n        /* \"#utility.yul\":5630:5667   */\n      swap1\n      pop\n        /* \"#utility.yul\":5567:5674   */\n      swap3\n      swap2\n      pop\n      pop\n      jump\t// out\n        /* \"#utility.yul\":5680:6073   */\n    tag_52:\n        /* \"#utility.yul\":5749:5755   */\n      0x00\n        /* \"#utility.yul\":5799:5800   */\n      0x08\n        /* \"#utility.yul\":5787:5797   */\n      dup4\n        /* \"#utility.yul\":5783:5801   */\n      mul\n        /* \"#utility.yul\":5822:5919   */\n      tag_129\n        /* \"#utility.yul\":5852:5918   */\n      0xffffffffffffffffffffffffffffffffffffffffffffffffffffffffffffffff\n        /* \"#utility.yul\":5841:5850   */\n      dup3\n        /* \"#utility.yul\":5822:5919   */\n      tag_51\n      jump\t// in\n    tag_129:\n        /* \"#utility.yul\":5940:5979   */\n      tag_130\n        /* \"#utility.yul\":5970:5978   */\n      dup7\n        /* \"#utility.yul\":5959:5968   */\n      dup4\n        /* \"#utility.yul\":5940:5979   */\n      tag_51\n      jump\t// in\n    tag_130:\n        /* \"#utility.yul\":5928:5979   */\n      swap6\n      pop\n        /* \"#utility.yul\":6012:6016   */\n      dup1\n        /* \"#utility.yul\":6008:6017   */\n      not\n        /* \"#utility.yul\":6001:6006   */\n      dup5\n        /* \"#utility.yul\":5997:6018   */\n      and\n        /* \"#utility.yul\":5988:6018   */\n      swap4\n      pop\n        /* \"#utility.yul\":6061:6065   */\n      dup1\n        /* \"#utility.yul\":6051:6059   */\n      dup7\n        /* \"#utility.yul\":6047:6066   */\n      and\n        /* \"#utility.yul\":6040:6045   */\n      dup5\n        /* \"#utility.yul\":6037:6067   */\n      or\n        /* \"#utility.yul\":6027:6067   */\n      swap3\n      pop\n        /* \"#utility.yul\":5756:6073   */\n      pop\n      pop\n        /* \"#utility.yul\":5680:6073   */\n      swap4\n      swap3\n      pop\n      pop\n      pop\n      jump\t// out\n        /* \"#utility.yul\":6079:6139   */\n    tag_53:\n        /* \"#utility.yul\":6107:6110   */\n      0x00\n        /* \"#utility.yul\":6128:6133   */\n      dup2\n        /* \"#utility.yul\":6121:6133   */\n      swap1\n      pop\n        /* \"#utility.yul\":6079:6139   */\n      swap2\n      swap1\n      pop\n      jump\t// out\n        /* \"#utility.yul\":6145:6287   */\n    tag_54:\n        /* \"#utility.yul\":6195:6204   */\n      0x00\n        /* \"#utility.yul\":6228:6281   */\n      tag_133\n        /* \"#utility.yul\":6246:6280   */\n      tag_134\n        /* \"#utility.yul\":6255:6279   */\n      tag_135\n        /* \"#utility.yul\":6273:6278   */\n      dup5\n        /* \"#utility.yul\":6255:6279   */\n      tag_39\n      jump\t// in\n    tag_135:\n        /* \"#utility.yul\":6246:6280   */\n      tag_53\n      jump\t// in\n    tag_134:\n        /* \"#utility.yul\":6228:6281   */\n      tag_39\n      jump\t// in\n    tag_133:\n        /* \"#utility.yul\":6215:6281   */\n      swap1\n      pop\n        /* \"#utility.yul\":6145:6287   */\n      swap2\n      swap1\n      pop\n      jump\t// out\n        /* \"#utility.yul\":6293:6368   */\n    tag_55:\n        /* \"#utility.yul\":6336:6339   */\n      0x00\n        /* \"#utility.yul\":6357:6362   */\n      dup2\n        /* \"#utility.yul\":6350:6362   */\n      swap1\n      pop\n        /* \"#utility.yul\":6293:6368   */\n      swap2\n      swap1\n      pop\n      jump\t// out\n        /* \"#utility.yul\":6374:6643   */\n    tag_56:\n        /* \"#utility.yul\":6484:6523   */\n      tag_138\n        /* \"#utility.yul\":6515:6522   */\n      dup4\n        /* \"#utility.yul\":6484:6523   */\n      tag_54\n      jump\t// in\n    tag_138:\n        /* \"#utility.yul\":6545:6636   */\n      tag_139\n        /* \"#utility.yul\":6594:6635   */\n      tag_140\n        /* \"#utility.yul\":6618:6634   */\n      dup3\n        /* \"#utility.yul\":6594:6635   */\n      tag_55\n      jump\t// in\n    tag_140:\n        /* \"#utility.yul\":6586:6592   */\n      dup5\n        /* \"#utility.yul\":6579:6583   */\n      dup5\n        /* \"#utility.yul\":6573:6584   */\n      sload\n        /* \"#utility.yul\":6545:6636   */\n      tag_52\n      jump\t// in\n    tag_139:\n        /* \"#utility.yul\":6539:6543   */\n      dup3\n        /* \"#utility.yul\":6532:6637   */\n      sstore\n        /* \"#utility.yul\":6450:6643   */\n      pop\n        /* \"#utility.yul\":6374:6643   */\n      pop\n      pop\n      pop\n      jump\t// out\n        /* \"#utility.yul\":6649:6722   */\n    tag_57:\n        /* \"#utility.yul\":6694:6697   */\n      0x00\n        /* \"#utility.yul\":6715:6716   */\n      0x00\n        /* \"#utility.yul\":6708:6716   */\n      swap1\n      pop\n        /* \"#utility.yul\":6649:6722   */\n      swap1\n      jump\t// out\n        /* \"#utility.yul\":6728:6917   */\n    tag_58:\n        /* \"#utility.yul\":6805:6837   */\n      tag_143\n      tag_57\n      jump\t// in\n    tag_143:\n        /* \"#utility.yul\":6846:6911   */\n      tag_144\n        /* \"#utility.yul\":6904:6910   */\n      dup2\n        /* \"#utility.yul\":6896:6902   */\n      dup5\n        /* \"#utility.yul\":6890:6894   */\n      dup5\n        /* \"#utility.yul\":6846:6911   */\n      tag_56\n      jump\t// in\n    tag_144:\n        /* \"#utility.yul\":6781:6917   */\n      pop\n        /* \"#utility.yul\":6728:6917   */\n      pop\n      pop\n      jump\t// out\n        /* \"#utility.yul\":6923:7109   */\n    tag_59:\n        /* \"#utility.yul\":6983:7103   */\n    tag_146:\n        /* \"#utility.yul\":7000:7003   */\n      dup2\n        /* \"#utility.yul\":6993:6998   */\n      dup2\n        /* \"#utility.yul\":6990:7004   */\n      lt\n        /* \"#utility.yul\":6983:7103   */\n      iszero\n      tag_148\n      jumpi\n        /* \"#utility.yul\":7054:7093   */\n      tag_149\n        /* \"#utility.yul\":7091:7092   */\n      0x00\n        /* \"#utility.yul\":7084:7089   */\n      dup3\n        /* \"#utility.yul\":7054:7093   */\n      tag_58\n      jump\t// in\n    tag_149:\n        /* \"#utility.yul\":7027:7028   */\n      0x01\n        /* \"#utility.yul\":7020:7025   */\n      dup2\n        /* \"#utility.yul\":7016:7029   */\n      add\n        /* \"#utility.yul\":7007:7029   */\n      swap1\n      pop\n        /* \"#utility.yul\":6983:7103   */\n      jump(tag_146)\n    tag_148:\n        /* \"#utility.yul\":6923:7109   */\n      pop\n      pop\n      jump\t// out\n        /* \"#utility.yul\":7115:7658   */\n    tag_60:\n        /* \"#utility.yul\":7216:7218   */\n      0x1f\n        /* \"#utility.yul\":7211:7214   */\n      dup3\n        /* \"#utility.yul\":7208:7219   */\n      gt\n        /* \"#utility.yul\":7205:7651   */\n      iszero\n      tag_151\n      jumpi\n        /* \"#utility.yul\":7250:7288   */\n      tag_152\n        /* \"#utility.yul\":7282:7287   */\n      dup2\n        /* \"#utility.yul\":7250:7288   */\n      tag_49\n      jump\t// in\n    tag_152:\n        /* \"#utility.yul\":7334:7363   */\n      tag_153\n        /* \"#utility.yul\":7352:7362   */\n      dup5\n        /* \"#utility.yul\":7334:7363   */\n      tag_50\n      jump\t// in\n    tag_153:\n        /* \"#utility.yul\":7324:7332   */\n      dup2\n        /* \"#utility.yul\":7320:7364   */\n      add\n        /* \"#utility.yul\":7517:7519   */\n      0x20\n        /* \"#utility.yul\":7505:7515   */\n      dup6\n        /* \"#utility.yul\":7502:7520   */\n      lt\n        /* \"#utility.yul\":7499:7548   */\n      iszero\n      tag_154\n      jumpi\n        /* \"#utility.yul\":7538:7546   */\n      dup2\n        /* \"#utility.yul\":7523:7546   */\n      swap1\n      pop\n        /* \"#utility.yul\":7499:7548   */\n    tag_154:\n        /* \"#utility.yul\":7561:7641   */\n      tag_155\n        /* \"#utility.yul\":7617:7639   */\n      tag_156\n        /* \"#utility.yul\":7635:7638   */\n      dup6\n        /* \"#utility.yul\":7617:7639   */\n      tag_50\n      jump\t// in\n    tag_156:\n        /* \"#utility.yul\":7607:7615   */\n      dup4\n        /* \"#utility.yul\":7603:7640   */\n      add\n        /* \"#utility.yul\":7590:7601   */\n      dup3\n        /* \"#utility.yul\":7561:7641   */\n      tag_59\n      jump\t// in\n    tag_155:\n        /* \"#utility.yul\":7220:7651   */\n      pop\n      pop\n        /* \"#utility.yul\":7205:7651   */\n    tag_151:\n        /* \"#utility.yul\":7115:7658   */\n      pop\n      pop\n      pop\n      jump\t// out\n        /* \"#utility.yul\":7664:7781   */\n    tag_61:\n        /* \"#utility.yul\":7718:7726   */\n      0x00\n        /* \"#utility.yul\":7768:7773   */\n      dup3\n        /* \"#utility.yul\":7762:7766   */\n      dup3\n        /* \"#utility.yul\":7758:7774   */\n      shr\n        /* \"#utility.yul\":7737:7774   */\n      swap1\n      pop\n        /* \"#utility.yul\":7664:7781   */\n      swap3\n      swap2\n      pop\n      pop\n      jump\t// out\n        /* \"#utility.yul\":7787:7956   */\n    tag_62:\n        /* \"#utility.yul\":7831:7837   */\n      0x00\n        /* \"#utility.yul\":7864:7915   */\n      tag_159\n        /* \"#utility.yul\":7912:7913   */\n      0x00\n        /* \"#utility.yul\":7908:7914   */\n      not\n        /* \"#utility.yul\":7900:7905   */\n      dup5\n        /* \"#utility.yul\":7897:7898   */\n      0x08\n        /* \"#utility.yul\":7893:7906   */\n      mul\n        /* \"#utility.yul\":7864:7915   */\n      tag_61\n      jump\t// in\n    tag_159:\n        /* \"#utility.yul\":7860:7916   */\n      not\n        /* \"#utility.yul\":7945:7949   */\n      dup1\n        /* \"#utility.yul\":7939:7943   */\n      dup4\n        /* \"#utility.yul\":7935:7950   */\n      and\n        /* \"#utility.yul\":7925:7950   */\n      swap2\n      pop\n        /* \"#utility.yul\":7838:7956   */\n      pop\n        /* \"#utility.yul\":7787:7956   */\n      swap3\n      swap2\n      pop\n      pop\n      jump\t// out\n        /* \"#utility.yul\":7961:8256   */\n    tag_63:\n        /* \"#utility.yul\":8037:8041   */\n      0x00\n        /* \"#utility.yul\":8183:8212   */\n      tag_161\n        /* \"#utility.yul\":8208:8211   */\n      dup4\n        /* \"#utility.yul\":8202:8206   */\n      dup4\n        /* \"#utility.yul\":8183:8212   */\n      tag_62\n      jump\t// in\n    tag_161:\n        /* \"#utility.yul\":8175:8212   */\n      swap2\n      pop\n        /* \"#utility.yul\":8245:8248   */\n      dup3\n        /* \"#utility.yul\":8242:8243   */\n      0x02\n        /* \"#utility.yul\":8238:8249   */\n      mul\n        /* \"#utility.yul\":8232:8236   */\n      dup3\n        /* \"#utility.yul\":8229:8250   */\n      or\n        /* \"#utility.yul\":8221:8250   */\n      swap1\n      pop\n        /* \"#utility.yul\":7961:8256   */\n      swap3\n      swap2\n      pop\n      pop\n      jump\t// out\n        /* \"#utility.yul\":8261:9656   */\n    tag_24:\n        /* \"#utility.yul\":8378:8415   */\n      tag_163\n        /* \"#utility.yul\":8411:8414   */\n      dup3\n        /* \"#utility.yul\":8378:8415   */\n      tag_34\n      jump\t// in\n    tag_163:\n        /* \"#utility.yul\":8480:8498   */\n      0xffffffffffffffff\n        /* \"#utility.yul\":8472:8478   */\n      dup2\n        /* \"#utility.yul\":8469:8499   */\n      gt\n        /* \"#utility.yul\":8466:8522   */\n      iszero\n      tag_164\n      jumpi\n        /* \"#utility.yul\":8502:8520   */\n      tag_165\n      tag_48\n      jump\t// in\n    tag_165:\n        /* \"#utility.yul\":8466:8522   */\n    tag_164:\n        /* \"#utility.yul\":8546:8584   */\n      tag_166\n        /* \"#utility.yul\":8578:8582   */\n      dup3\n        /* \"#utility.yul\":8572:8583   */\n      sload\n        /* \"#utility.yul\":8546:8584   */\n      tag_17\n      jump\t// in\n    tag_166:\n        /* \"#utility.yul\":8631:8698   */\n      tag_167\n        /* \"#utility.yul\":8691:8697   */\n      dup3\n        /* \"#utility.yul\":8683:8689   */\n      dup3\n        /* \"#utility.yul\":8677:8681   */\n      dup6\n        /* \"#utility.yul\":8631:8698   */\n      tag_60\n      jump\t// in\n    tag_167:\n        /* \"#utility.yul\":8725:8726   */\n      0x00\n        /* \"#utility.yul\":8749:8753   */\n      0x20\n        /* \"#utility.yul\":8736:8753   */\n      swap1\n      pop\n        /* \"#utility.yul\":8781:8783   */\n      0x1f\n        /* \"#utility.yul\":8773:8779   */\n      dup4\n        /* \"#utility.yul\":8770:8784   */\n      gt\n        /* \"#utility.yul\":8798:8799   */\n      0x01\n        /* \"#utility.yul\":8793:9411   */\n      dup2\n      eq\n      tag_169\n      jumpi\n        /* \"#utility.yul\":9455:9456   */\n      0x00\n        /* \"#utility.yul\":9472:9478   */\n      dup5\n        /* \"#utility.yul\":9469:9546   */\n      iszero\n      tag_170\n      jumpi\n        /* \"#utility.yul\":9521:9530   */\n      dup3\n        /* \"#utility.yul\":9516:9519   */\n      dup8\n        /* \"#utility.yul\":9512:9531   */\n      add\n        /* \"#utility.yul\":9506:9532   */\n      mload\n        /* \"#utility.yul\":9497:9532   */\n      swap1\n      pop\n        /* \"#utility.yul\":9469:9546   */\n    tag_170:\n        /* \"#utility.yul\":9572:9639   */\n      tag_171\n        /* \"#utility.yul\":9632:9638   */\n      dup6\n        /* \"#utility.yul\":9625:9630   */\n      dup3\n        /* \"#utility.yul\":9572:9639   */\n      tag_63\n      jump\t// in\n    tag_171:\n        /* \"#utility.yul\":9566:9570   */\n      dup7\n        /* \"#utility.yul\":9559:9640   */\n      sstore\n        /* \"#utility.yul\":9428:9650   */\n      pop\n        /* \"#utility.yul\":8763:9650   */\n      jump(tag_168)\n        /* \"#utility.yul\":8793:9411   */\n    tag_169:\n        /* \"#utility.yul\":8845:8849   */\n      0x1f\n        /* \"#utility.yul\":8841:8850   */\n      not\n        /* \"#utility.yul\":8833:8839   */\n      dup5\n        /* \"#utility.yul\":8829:8851   */\n      and\n        /* \"#utility.yul\":8879:8916   */\n      tag_172\n        /* \"#utility.yul\":8911:8915   */\n      dup7\n        /* \"#utility.yul\":8879:8916   */\n      tag_49\n      jump\t// in\n    tag_172:\n        /* \"#utility.yul\":8938:8939   */\n      0x00\n        /* \"#utility.yul\":8952:9160   */\n    tag_173:\n        /* \"#utility.yul\":8966:8973   */\n      dup3\n        /* \"#utility.yul\":8963:8964   */\n      dup2\n        /* \"#utility.yul\":8960:8974   */\n      lt\n        /* \"#utility.yul\":8952:9160   */\n      iszero\n      tag_175\n      jumpi\n        /* \"#utility.yul\":9045:9054   */\n      dup5\n        /* \"#utility.yul\":9040:9043   */\n      dup10\n        /* \"#utility.yul\":9036:9055   */\n      add\n        /* \"#utility.yul\":9030:9056   */\n      mload\n        /* \"#utility.yul\":9022:9028   */\n      dup3\n        /* \"#utility.yul\":9015:9057   */\n      sstore\n        /* \"#utility.yul\":9096:9097   */\n      0x01\n        /* \"#utility.yul\":9088:9094   */\n      dup3\n        /* \"#utility.yul\":9084:9098   */\n      add\n        /* \"#utility.yul\":9074:9098   */\n      swap2\n      pop\n        /* \"#utility.yul\":9143:9145   */\n      0x20\n        /* \"#utility.yul\":9132:9141   */\n      dup6\n        /* \"#utility.yul\":9128:9146   */\n      add\n        /* \"#utility.yul\":9115:9146   */\n      swap5\n      pop\n        /* \"#utility.yul\":8989:8993   */\n      0x20\n        /* \"#utility.yul\":8986:8987   */\n      dup2\n        /* \"#utility.yul\":8982:8994   */\n      add\n        /* \"#utility.yul\":8977:8994   */\n      swap1\n      pop\n        /* \"#utility.yul\":8952:9160   */\n      jump(tag_173)\n    tag_175:\n        /* \"#utility.yul\":9188:9194   */\n      dup7\n        /* \"#utility.yul\":9179:9186   */\n      dup4\n        /* \"#utility.yul\":9176:9195   */\n      lt\n        /* \"#utility.yul\":9173:9352   */\n      iszero\n      tag_176\n      jumpi\n        /* \"#utility.yul\":9246:9255   */\n      dup5\n        /* \"#utility.yul\":9241:9244   */\n      dup10\n        /* \"#utility.yul\":9237:9256   */\n      add\n        /* \"#utility.yul\":9231:9257   */\n      mload\n        /* \"#utility.yul\":9289:9337   */\n      tag_177\n        /* \"#utility.yul\":9331:9335   */\n      0x1f\n        /* \"#utility.yul\":9323:9329   */\n      dup10\n        /* \"#utility.yul\":9319:9336   */\n      and\n        /* \"#utility.yul\":9308:9317   */\n      dup3\n        /* \"#utility.yul\":9289:9337   */\n      tag_62\n      jump\t// in\n    tag_177:\n        /* \"#utility.yul\":9281:9287   */\n      dup4\n        /* \"#utility.yul\":9274:9338   */\n      sstore\n        /* \"#utility.yul\":9196:9352   */\n      pop\n        /* \"#utility.yul\":9173:9352   */\n    tag_176:\n        /* \"#utility.yul\":9398:9399   */\n      0x01\n        /* \"#utility.yul\":9394:9395   */\n      0x02\n        /* \"#utility.yul\":9386:9392   */\n      dup9\n        /* \"#utility.yul\":9382:9396   */\n      mul\n        /* \"#utility.yul\":9378:9400   */\n      add\n        /* \"#utility.yul\":9372:9376   */\n      dup9\n        /* \"#utility.yul\":9365:9401   */\n      sstore\n        /* \"#utility.yul\":8800:9411   */\n      pop\n      pop\n      pop\n        /* \"#utility.yul\":8763:9650   */\n    tag_168:\n      pop\n        /* \"#utility.yul\":8353:9656   */\n      pop\n      pop\n      pop\n        /* \"#utility.yul\":8261:9656   */\n      pop\n      pop\n      jump\t// out\n        /* \"#utility.yul\":9662:9810   */\n    tag_64:\n        /* \"#utility.yul\":9760:9766   */\n      dup3\n        /* \"#utility.yul\":9755:9758   */\n      dup2\n        /* \"#utility.yul\":9750:9753   */\n      dup4\n        /* \"#utility.yul\":9737:9767   */\n      calldatacopy\n        /* \"#utility.yul\":9801:9802   */\n      0x00\n        /* \"#utility.yul\":9792:9798   */\n      dup4\n        /* \"#utility.yul\":9787:9790   */\n      dup4\n        /* \"#utility.yul\":9783:9799   */\n      add\n        /* \"#utility.yul\":9776:9803   */\n      mstore\n        /* \"#utility.yul\":9662:9810   */\n      pop\n      pop\n      pop\n      jump\t// out\n        /* \"#utility.yul\":9840:10157   */\n    tag_65:\n        /* \"#utility.yul\":9938:9941   */\n      0x00\n        /* \"#utility.yul\":9959:10030   */\n      tag_180\n        /* \"#utility.yul\":10023:10029   */\n      dup4\n        /* \"#utility.yul\":10018:10021   */\n      dup6\n        /* \"#utility.yul\":9959:10030   */\n      tag_35\n      jump\t// in\n    tag_180:\n        /* \"#utility.yul\":9952:10030   */\n      swap4\n      pop\n        /* \"#utility.yul\":10040:10096   */\n      tag_181\n        /* \"#utility.yul\":10089:10095   */\n      dup4\n        /* \"#utility.yul\":10084:10087   */\n      dup6\n        /* \"#utility.yul\":10077:10082   */\n      dup5\n        /* \"#utility.yul\":10040:10096   */\n      tag_64\n      jump\t// in\n    tag_181:\n        /* \"#utility.yul\":10121:10150   */\n      tag_182\n        /* \"#utility.yul\":10143:10149   */\n      dup4\n        /* \"#utility.yul\":10121:10150   */\n      tag_37\n      jump\t// in\n    tag_182:\n        /* \"#utility.yul\":10116:10119   */\n      dup5\n        /* \"#utility.yul\":10112:10151   */\n      add\n        /* \"#utility.yul\":10105:10151   */\n      swap1\n      pop\n        /* \"#utility.yul\":9840:10157   */\n      swap4\n      swap3\n      pop\n      pop\n      pop\n      jump\t// out\n        /* \"#utility.yul\":10163:10606   */\n    tag_26:\n        /* \"#utility.yul\":10314:10318   */\n      0x00\n        /* \"#utility.yul\":10352:10354   */\n      0x40\n        /* \"#utility.yul\":10341:10350   */\n      dup3\n        /* \"#utility.yul\":10337:10355   */\n      add\n        /* \"#utility.yul\":10329:10355   */\n      swap1\n      pop\n        /* \"#utility.yul\":10401:10410   */\n      dup2\n        /* \"#utility.yul\":10395:10399   */\n      dup2\n        /* \"#utility.yul\":10391:10411   */\n      sub\n        /* \"#utility.yul\":10387:10388   */\n      0x00\n        /* \"#utility.yul\":10376:10385   */\n      dup4\n        /* \"#utility.yul\":10372:10389   */\n      add\n        /* \"#utility.yul\":10365:10412   */\n      mstore\n        /* \"#utility.yul\":10429:10517   */\n      tag_184\n        /* \"#utility.yul\":10512:10516   */\n      dup2\n        /* \"#utility.yul\":10503:10509   */\n      dup6\n        /* \"#utility.yul\":10495:10501   */\n      dup8\n        /* \"#utility.yul\":10429:10517   */\n      tag_65\n      jump\t// in\n    tag_184:\n        /* \"#utility.yul\":10421:10517   */\n      swap1\n      pop\n        /* \"#utility.yul\":10527:10599   */\n      tag_185\n        /* \"#utility.yul\":10595:10597   */\n      0x20\n        /* \"#utility.yul\":10584:10593   */\n      dup4\n        /* \"#utility.yul\":10580:10598   */\n      add\n        /* \"#utility.yul\":10571:10577   */\n      dup5\n        /* \"#utility.yul\":10527:10599   */\n      tag_40\n      jump\t// in\n    tag_185:\n        /* \"#utility.yul\":10163:10606   */\n      swap5\n      swap4\n      pop\n      pop\n      pop\n      pop\n      jump\t// out\n\n    auxdata: 0xa264697066735822122051c9dfa9b247e92e18137f054211a2fac2ed10a754837f58a1a3593ed497071b64736f6c634300081e0033\n}\n",
				"bytecode": {
					"linkReferences": {},
					"object": "6080604052348015600e575f5ffd5b5061084e8061001c5f395ff3fe608060405234801561000f575f5ffd5b5060043610610034575f3560e01c80630f53a47014610038578063625fc53514610069575b5f5ffd5b610052600480360381019061004d91906102ec565b610085565b60405161006092919061039f565b60405180910390f35b610083600480360381019061007e9190610458565b61017e565b005b60605f5f5f5f8573ffffffffffffffffffffffffffffffffffffffff1673ffffffffffffffffffffffffffffffffffffffff1681526020019081526020015f206040518060400160405290815f820180546100df906104e2565b80601f016020809104026020016040519081016040528092919081815260200182805461010b906104e2565b80156101565780601f1061012d57610100808354040283529160200191610156565b820191905f5260205f20905b81548152906001019060200180831161013957829003601f168201915b505050505081526020016001820154815250509050805f015181602001519250925050915091565b604051806040016040528084848080601f0160208091040260200160405190810160405280939291908181526020018383808284375f81840152601f19601f820116905080830192505050505050508152602001828152505f5f3373ffffffffffffffffffffffffffffffffffffffff1673ffffffffffffffffffffffffffffffffffffffff1681526020019081526020015f205f820151815f01908161022591906106df565b50602082015181600101559050503373ffffffffffffffffffffffffffffffffffffffff167fdcb94c0b2c025b0736b4b62b1c595f2ca7ad4c711eada6026d477e87de9cca0884848460405161027d939291906107e8565b60405180910390a2505050565b5f5ffd5b5f5ffd5b5f73ffffffffffffffffffffffffffffffffffffffff82169050919050565b5f6102bb82610292565b9050919050565b6102cb816102b1565b81146102d5575f5ffd5b50565b5f813590506102e6816102c2565b92915050565b5f602082840312156103015761030061028a565b5b5f61030e848285016102d8565b91505092915050565b5f81519050919050565b5f82825260208201905092915050565b8281835e5f83830152505050565b5f601f19601f8301169050919050565b5f61035982610317565b6103638185610321565b9350610373818560208601610331565b61037c8161033f565b840191505092915050565b5f819050919050565b61039981610387565b82525050565b5f6040820190508181035f8301526103b7818561034f565b90506103c66020830184610390565b9392505050565b5f5ffd5b5f5ffd5b5f5ffd5b5f5f83601f8401126103ee576103ed6103cd565b5b8235905067ffffffffffffffff81111561040b5761040a6103d1565b5b602083019150836001820283011115610427576104266103d5565b5b9250929050565b61043781610387565b8114610441575f5ffd5b50565b5f813590506104528161042e565b92915050565b5f5f5f6040848603121561046f5761046e61028a565b5b5f84013567ffffffffffffffff81111561048c5761048b61028e565b5b610498868287016103d9565b935093505060206104ab86828701610444565b9150509250925092565b7f4e487b71000000000000000000000000000000000000000000000000000000005f52602260045260245ffd5b5f60028204905060018216806104f957607f821691505b60208210810361050c5761050b6104b5565b5b50919050565b7f4e487b71000000000000000000000000000000000000000000000000000000005f52604160045260245ffd5b5f819050815f5260205f209050919050565b5f6020601f8301049050919050565b5f82821b905092915050565b5f6008830261059b7fffffffffffffffffffffffffffffffffffffffffffffffffffffffffffffffff82610560565b6105a58683610560565b95508019841693508086168417925050509392505050565b5f819050919050565b5f6105e06105db6105d684610387565b6105bd565b610387565b9050919050565b5f819050919050565b6105f9836105c6565b61060d610605826105e7565b84845461056c565b825550505050565b5f5f905090565b610624610615565b61062f8184846105f0565b505050565b5b81811015610652576106475f8261061c565b600181019050610635565b5050565b601f821115610697576106688161053f565b61067184610551565b81016020851015610680578190505b61069461068c85610551565b830182610634565b50505b505050565b5f82821c905092915050565b5f6106b75f198460080261069c565b1980831691505092915050565b5f6106cf83836106a8565b9150826002028217905092915050565b6106e882610317565b67ffffffffffffffff81111561070157610700610512565b5b61070b82546104e2565b610716828285610656565b5f60209050601f831160018114610747575f8415610735578287015190505b61073f85826106c4565b8655506107a6565b601f1984166107558661053f565b5f5b8281101561077c57848901518255600182019150602085019450602081019050610757565b868310156107995784890151610795601f8916826106a8565b8355505b6001600288020188555050505b505050505050565b828183375f83830152505050565b5f6107c78385610321565b93506107d48385846107ae565b6107dd8361033f565b840190509392505050565b5f6040820190508181035f8301526108018185876107bc565b90506108106020830184610390565b94935050505056fea264697066735822122051c9dfa9b247e92e18137f054211a2fac2ed10a754837f58a1a3593ed497071b64736f6c634300081e0033",
					"opcodes": "PUSH1 0x80 PUSH1 0x40 MSTORE CALLVALUE DUP1 ISZERO PUSH1 0xE JUMPI PUSH0 PUSH0 REVERT JUMPDEST POP PUSH2 0x84E DUP1 PUSH2 0x1C PUSH0 CODECOPY PUSH0 RETURN INVALID PUSH1 0x80 PUSH1 0x40 MSTORE CALLVALUE DUP1 ISZERO PUSH2 0xF JUMPI PUSH0 PUSH0 REVERT JUMPDEST POP PUSH1 0x4 CALLDATASIZE LT PUSH2 0x34 JUMPI PUSH0 CALLDATALOAD PUSH1 0xE0 SHR DUP1 PUSH4 0xF53A470 EQ PUSH2 0x38 JUMPI DUP1 PUSH4 0x625FC535 EQ PUSH2 0x69 JUMPI JUMPDEST PUSH0 PUSH0 REVERT JUMPDEST PUSH2 0x52 PUSH1 0x4 DUP1 CALLDATASIZE SUB DUP2 ADD SWAP1 PUSH2 0x4D SWAP2 SWAP1 PUSH2 0x2EC JUMP JUMPDEST PUSH2 0x85 JUMP JUMPDEST PUSH1 0x40 MLOAD PUSH2 0x60 SWAP3 SWAP2 SWAP1 PUSH2 0x39F JUMP JUMPDEST PUSH1 0x40 MLOAD DUP1 SWAP2 SUB SWAP1 RETURN JUMPDEST PUSH2 0x83 PUSH1 0x4 DUP1 CALLDATASIZE SUB DUP2 ADD SWAP1 PUSH2 0x7E SWAP2 SWAP1 PUSH2 0x458 JUMP JUMPDEST PUSH2 0x17E JUMP JUMPDEST STOP JUMPDEST PUSH1 0x60 PUSH0 PUSH0 PUSH0 PUSH0 DUP6 PUSH20 0xFFFFFFFFFFFFFFFFFFFFFFFFFFFFFFFFFFFFFFFF AND PUSH20 0xFFFFFFFFFFFFFFFFFFFFFFFFFFFFFFFFFFFFFFFF AND DUP2 MSTORE PUSH1 0x20 ADD SWAP1 DUP2 MSTORE PUSH1 0x20 ADD PUSH0 KECCAK256 PUSH1 0x40 MLOAD DUP1 PUSH1 0x40 ADD PUSH1 0x40 MSTORE SWAP1 DUP2 PUSH0 DUP3 ADD DUP1 SLOAD PUSH2 0xDF SWAP1 PUSH2 0x4E2 JUMP JUMPDEST DUP1 PUSH1 0x1F ADD PUSH1 0x20 DUP1 SWAP2 DIV MUL PUSH1 0x20 ADD PUSH1 0x40 MLOAD SWAP1 DUP2 ADD PUSH1 0x40 MSTORE DUP1 SWAP3 SWAP2 SWAP1 DUP2 DUP2 MSTORE PUSH1 0x20 ADD DUP3 DUP1 SLOAD PUSH2 0x10B SWAP1 PUSH2 0x4E2 JUMP JUMPDEST DUP1 ISZERO PUSH2 0x156 JUMPI DUP1 PUSH1 0x1F LT PUSH2 0x12D JUMPI PUSH2 0x100 DUP1 DUP4 SLOAD DIV MUL DUP4 MSTORE SWAP2 PUSH1 0x20 ADD SWAP2 PUSH2 0x156 JUMP JUMPDEST DUP3 ADD SWAP2 SWAP1 PUSH0 MSTORE PUSH1 0x20 PUSH0 KECCAK256 SWAP1 JUMPDEST DUP2 SLOAD DUP2 MSTORE SWAP1 PUSH1 0x1 ADD SWAP1 PUSH1 0x20 ADD DUP1 DUP4 GT PUSH2 0x139 JUMPI DUP3 SWAP1 SUB PUSH1 0x1F AND DUP3 ADD SWAP2 JUMPDEST POP POP POP POP POP DUP2 MSTORE PUSH1 0x20 ADD PUSH1 0x1 DUP3 ADD SLOAD DUP2 MSTORE POP POP SWAP1 POP DUP1 PUSH0 ADD MLOAD DUP2 PUSH1 0x20 ADD MLOAD SWAP3 POP SWAP3 POP POP SWAP2 POP SWAP2 JUMP JUMPDEST PUSH1 0x40 MLOAD DUP1 PUSH1 0x40 ADD PUSH1 0x40 MSTORE DUP1 DUP5 DUP5 DUP1 DUP1 PUSH1 0x1F ADD PUSH1 0x20 DUP1 SWAP2 DIV MUL PUSH1 0x20 ADD PUSH1 0x40 MLOAD SWAP1 DUP2 ADD PUSH1 0x40 MSTORE DUP1 SWAP4 SWAP3 SWAP2 SWAP1 DUP2 DUP2 MSTORE PUSH1 0x20 ADD DUP4 DUP4 DUP1 DUP3 DUP5 CALLDATACOPY PUSH0 DUP2 DUP5 ADD MSTORE PUSH1 0x1F NOT PUSH1 0x1F DUP3 ADD AND SWAP1 POP DUP1 DUP4 ADD SWAP3 POP POP POP POP POP POP POP DUP2 MSTORE PUSH1 0x20 ADD DUP3 DUP2 MSTORE POP PUSH0 PUSH0 CALLER PUSH20 0xFFFFFFFFFFFFFFFFFFFFFFFFFFFFFFFFFFFFFFFF AND PUSH20 0xFFFFFFFFFFFFFFFFFFFFFFFFFFFFFFFFFFFFFFFF AND DUP2 MSTORE PUSH1 0x20 ADD SWAP1 DUP2 MSTORE PUSH1 0x20 ADD PUSH0 KECCAK256 PUSH0 DUP3 ADD MLOAD DUP2 PUSH0 ADD SWAP1 DUP2 PUSH2 0x225 SWAP2 SWAP1 PUSH2 0x6DF JUMP JUMPDEST POP PUSH1 0x20 DUP3 ADD MLOAD DUP2 PUSH1 0x1 ADD SSTORE SWAP1 POP POP CALLER PUSH20 0xFFFFFFFFFFFFFFFFFFFFFFFFFFFFFFFFFFFFFFFF AND PUSH32 0xDCB94C0B2C025B0736B4B62B1C595F2CA7AD4C711EADA6026D477E87DE9CCA08 DUP5 DUP5 DUP5 PUSH1 0x40 MLOAD PUSH2 0x27D SWAP4 SWAP3 SWAP2 SWAP1 PUSH2 0x7E8 JUMP JUMPDEST PUSH1 0x40 MLOAD DUP1 SWAP2 SUB SWAP1 LOG2 POP POP POP JUMP JUMPDEST PUSH0 PUSH0 REVERT JUMPDEST PUSH0 PUSH0 REVERT JUMPDEST PUSH0 PUSH20 0xFFFFFFFFFFFFFFFFFFFFFFFFFFFFFFFFFFFFFFFF DUP3 AND SWAP1 POP SWAP2 SWAP1 POP JUMP JUMPDEST PUSH0 PUSH2 0x2BB DUP3 PUSH2 0x292 JUMP JUMPDEST SWAP1 POP SWAP2 SWAP1 POP JUMP JUMPDEST PUSH2 0x2CB DUP2 PUSH2 0x2B1 JUMP JUMPDEST DUP2 EQ PUSH2 0x2D5 JUMPI PUSH0 PUSH0 REVERT JUMPDEST POP JUMP JUMPDEST PUSH0 DUP2 CALLDATALOAD SWAP1 POP PUSH2 0x2E6 DUP2 PUSH2 0x2C2 JUMP JUMPDEST SWAP3 SWAP2 POP POP JUMP JUMPDEST PUSH0 PUSH1 0x20 DUP3 DUP5 SUB SLT ISZERO PUSH2 0x301 JUMPI PUSH2 0x300 PUSH2 0x28A JUMP JUMPDEST JUMPDEST PUSH0 PUSH2 0x30E DUP5 DUP3 DUP6 ADD PUSH2 0x2D8 JUMP JUMPDEST SWAP2 POP POP SWAP3 SWAP2 POP POP JUMP JUMPDEST PUSH0 DUP2 MLOAD SWAP1 POP SWAP2 SWAP1 POP JUMP JUMPDEST PUSH0 DUP3 DUP3 MSTORE PUSH1 0x20 DUP3 ADD SWAP1 POP SWAP3 SWAP2 POP POP JUMP JUMPDEST DUP3 DUP2 DUP4 MCOPY PUSH0 DUP4 DUP4 ADD MSTORE POP POP POP JUMP JUMPDEST PUSH0 PUSH1 0x1F NOT PUSH1 0x1F DUP4 ADD AND SWAP1 POP SWAP2 SWAP1 POP JUMP JUMPDEST PUSH0 PUSH2 0x359 DUP3 PUSH2 0x317 JUMP JUMPDEST PUSH2 0x363 DUP2 DUP6 PUSH2 0x321 JUMP JUMPDEST SWAP4 POP PUSH2 0x373 DUP2 DUP6 PUSH1 0x20 DUP7 ADD PUSH2 0x331 JUMP JUMPDEST PUSH2 0x37C DUP2 PUSH2 0x33F JUMP JUMPDEST DUP5 ADD SWAP2 POP POP SWAP3 SWAP2 POP POP JUMP JUMPDEST PUSH0 DUP2 SWAP1 POP SWAP2 SWAP1 POP JUMP JUMPDEST PUSH2 0x399 DUP2 PUSH2 0x387 JUMP JUMPDEST DUP3 MSTORE POP POP JUMP JUMPDEST PUSH0 PUSH1 0x40 DUP3 ADD SWAP1 POP DUP2 DUP2 SUB PUSH0 DUP4 ADD MSTORE PUSH2 0x3B7 DUP2 DUP6 PUSH2 0x34F JUMP JUMPDEST SWAP1 POP PUSH2 0x3C6 PUSH1 0x20 DUP4 ADD DUP5 PUSH2 0x390 JUMP JUMPDEST SWAP4 SWAP3 POP POP POP JUMP JUMPDEST PUSH0 PUSH0 REVERT JUMPDEST PUSH0 PUSH0 REVERT JUMPDEST PUSH0 PUSH0 REVERT JUMPDEST PUSH0 PUSH0 DUP4 PUSH1 0x1F DUP5 ADD SLT PUSH2 0x3EE JUMPI PUSH2 0x3ED PUSH2 0x3CD JUMP JUMPDEST JUMPDEST DUP3 CALLDATALOAD SWAP1 POP PUSH8 0xFFFFFFFFFFFFFFFF DUP2 GT ISZERO PUSH2 0x40B JUMPI PUSH2 0x40A PUSH2 0x3D1 JUMP JUMPDEST JUMPDEST PUSH1 0x20 DUP4 ADD SWAP2 POP DUP4 PUSH1 0x1 DUP3 MUL DUP4 ADD GT ISZERO PUSH2 0x427 JUMPI PUSH2 0x426 PUSH2 0x3D5 JUMP JUMPDEST JUMPDEST SWAP3 POP SWAP3 SWAP1 POP JUMP JUMPDEST PUSH2 0x437 DUP2 PUSH2 0x387 JUMP JUMPDEST DUP2 EQ PUSH2 0x441 JUMPI PUSH0 PUSH0 REVERT JUMPDEST POP JUMP JUMPDEST PUSH0 DUP2 CALLDATALOAD SWAP1 POP PUSH2 0x452 DUP2 PUSH2 0x42E JUMP JUMPDEST SWAP3 SWAP2 POP POP JUMP JUMPDEST PUSH0 PUSH0 PUSH0 PUSH1 0x40 DUP5 DUP7 SUB SLT ISZERO PUSH2 0x46F JUMPI PUSH2 0x46E PUSH2 0x28A JUMP JUMPDEST JUMPDEST PUSH0 DUP5 ADD CALLDATALOAD PUSH8 0xFFFFFFFFFFFFFFFF DUP2 GT ISZERO PUSH2 0x48C JUMPI PUSH2 0x48B PUSH2 0x28E JUMP JUMPDEST JUMPDEST PUSH2 0x498 DUP7 DUP3 DUP8 ADD PUSH2 0x3D9 JUMP JUMPDEST SWAP4 POP SWAP4 POP POP PUSH1 0x20 PUSH2 0x4AB DUP7 DUP3 DUP8 ADD PUSH2 0x444 JUMP JUMPDEST SWAP2 POP POP SWAP3 POP SWAP3 POP SWAP3 JUMP JUMPDEST PUSH32 0x4E487B7100000000000000000000000000000000000000000000000000000000 PUSH0 MSTORE PUSH1 0x22 PUSH1 0x4 MSTORE PUSH1 0x24 PUSH0 REVERT JUMPDEST PUSH0 PUSH1 0x2 DUP3 DIV SWAP1 POP PUSH1 0x1 DUP3 AND DUP1 PUSH2 0x4F9 JUMPI PUSH1 0x7F DUP3 AND SWAP2 POP JUMPDEST PUSH1 0x20 DUP3 LT DUP2 SUB PUSH2 0x50C JUMPI PUSH2 0x50B PUSH2 0x4B5 JUMP JUMPDEST JUMPDEST POP SWAP2 SWAP1 POP JUMP JUMPDEST PUSH32 0x4E487B7100000000000000000000000000000000000000000000000000000000 PUSH0 MSTORE PUSH1 0x41 PUSH1 0x4 MSTORE PUSH1 0x24 PUSH0 REVERT JUMPDEST PUSH0 DUP2 SWAP1 POP DUP2 PUSH0 MSTORE PUSH1 0x20 PUSH0 KECCAK256 SWAP1 POP SWAP2 SWAP1 POP JUMP JUMPDEST PUSH0 PUSH1 0x20 PUSH1 0x1F DUP4 ADD DIV SWAP1 POP SWAP2 SWAP1 POP JUMP JUMPDEST PUSH0 DUP3 DUP3 SHL SWAP1 POP SWAP3 SWAP2 POP POP JUMP JUMPDEST PUSH0 PUSH1 0x8 DUP4 MUL PUSH2 0x59B PUSH32 0xFFFFFFFFFFFFFFFFFFFFFFFFFFFFFFFFFFFFFFFFFFFFFFFFFFFFFFFFFFFFFFFF DUP3 PUSH2 0x560 JUMP JUMPDEST PUSH2 0x5A5 DUP7 DUP4 PUSH2 0x560 JUMP JUMPDEST SWAP6 POP DUP1 NOT DUP5 AND SWAP4 POP DUP1 DUP7 AND DUP5 OR SWAP3 POP POP POP SWAP4 SWAP3 POP POP POP JUMP JUMPDEST PUSH0 DUP2 SWAP1 POP SWAP2 SWAP1 POP JUMP JUMPDEST PUSH0 PUSH2 0x5E0 PUSH2 0x5DB PUSH2 0x5D6 DUP5 PUSH2 0x387 JUMP JUMPDEST PUSH2 0x5BD JUMP JUMPDEST PUSH2 0x387 JUMP JUMPDEST SWAP1 POP SWAP2 SWAP1 POP JUMP JUMPDEST PUSH0 DUP2 SWAP1 POP SWAP2 SWAP1 POP JUMP JUMPDEST PUSH2 0x5F9 DUP4 PUSH2 0x5C6 JUMP JUMPDEST PUSH2 0x60D PUSH2 0x605 DUP3 PUSH2 0x5E7 JUMP JUMPDEST DUP5 DUP5 SLOAD PUSH2 0x56C JUMP JUMPDEST DUP3 SSTORE POP POP POP POP JUMP JUMPDEST PUSH0 PUSH0 SWAP1 POP SWAP1 JUMP JUMPDEST PUSH2 0x624 PUSH2 0x615 JUMP JUMPDEST PUSH2 0x62F DUP2 DUP5 DUP5 PUSH2 0x5F0 JUMP JUMPDEST POP POP POP JUMP JUMPDEST JUMPDEST DUP2 DUP2 LT ISZERO PUSH2 0x652 JUMPI PUSH2 0x647 PUSH0 DUP3 PUSH2 0x61C JUMP JUMPDEST PUSH1 0x1 DUP2 ADD SWAP1 POP PUSH2 0x635 JUMP JUMPDEST POP POP JUMP JUMPDEST PUSH1 0x1F DUP3 GT ISZERO PUSH2 0x697 JUMPI PUSH2 0x668 DUP2 PUSH2 0x53F JUMP JUMPDEST PUSH2 0x671 DUP5 PUSH2 0x551 JUMP JUMPDEST DUP2 ADD PUSH1 0x20 DUP6 LT ISZERO PUSH2 0x680 JUMPI DUP2 SWAP1 POP JUMPDEST PUSH2 0x694 PUSH2 0x68C DUP6 PUSH2 0x551 JUMP JUMPDEST DUP4 ADD DUP3 PUSH2 0x634 JUMP JUMPDEST POP POP JUMPDEST POP POP POP JUMP JUMPDEST PUSH0 DUP3 DUP3 SHR SWAP1 POP SWAP3 SWAP2 POP POP JUMP JUMPDEST PUSH0 PUSH2 0x6B7 PUSH0 NOT DUP5 PUSH1 0x8 MUL PUSH2 0x69C JUMP JUMPDEST NOT DUP1 DUP4 AND SWAP2 POP POP SWAP3 SWAP2 POP POP JUMP JUMPDEST PUSH0 PUSH2 0x6CF DUP4 DUP4 PUSH2 0x6A8 JUMP JUMPDEST SWAP2 POP DUP3 PUSH1 0x2 MUL DUP3 OR SWAP1 POP SWAP3 SWAP2 POP POP JUMP JUMPDEST PUSH2 0x6E8 DUP3 PUSH2 0x317 JUMP JUMPDEST PUSH8 0xFFFFFFFFFFFFFFFF DUP2 GT ISZERO PUSH2 0x701 JUMPI PUSH2 0x700 PUSH2 0x512 JUMP JUMPDEST JUMPDEST PUSH2 0x70B DUP3 SLOAD PUSH2 0x4E2 JUMP JUMPDEST PUSH2 0x716 DUP3 DUP3 DUP6 PUSH2 0x656 JUMP JUMPDEST PUSH0 PUSH1 0x20 SWAP1 POP PUSH1 0x1F DUP4 GT PUSH1 0x1 DUP2 EQ PUSH2 0x747 JUMPI PUSH0 DUP5 ISZERO PUSH2 0x735 JUMPI DUP3 DUP8 ADD MLOAD SWAP1 POP JUMPDEST PUSH2 0x73F DUP6 DUP3 PUSH2 0x6C4 JUMP JUMPDEST DUP7 SSTORE POP PUSH2 0x7A6 JUMP JUMPDEST PUSH1 0x1F NOT DUP5 AND PUSH2 0x755 DUP7 PUSH2 0x53F JUMP JUMPDEST PUSH0 JUMPDEST DUP3 DUP2 LT ISZERO PUSH2 0x77C JUMPI DUP5 DUP10 ADD MLOAD DUP3 SSTORE PUSH1 0x1 DUP3 ADD SWAP2 POP PUSH1 0x20 DUP6 ADD SWAP5 POP PUSH1 0x20 DUP2 ADD SWAP1 POP PUSH2 0x757 JUMP JUMPDEST DUP7 DUP4 LT ISZERO PUSH2 0x799 JUMPI DUP5 DUP10 ADD MLOAD PUSH2 0x795 PUSH1 0x1F DUP10 AND DUP3 PUSH2 0x6A8 JUMP JUMPDEST DUP4 SSTORE POP JUMPDEST PUSH1 0x1 PUSH1 0x2 DUP9 MUL ADD DUP9 SSTORE POP POP POP JUMPDEST POP POP POP POP POP POP JUMP JUMPDEST DUP3 DUP2 DUP4 CALLDATACOPY PUSH0 DUP4 DUP4 ADD MSTORE POP POP POP JUMP JUMPDEST PUSH0 PUSH2 0x7C7 DUP4 DUP6 PUSH2 0x321 JUMP JUMPDEST SWAP4 POP PUSH2 0x7D4 DUP4 DUP6 DUP5 PUSH2 0x7AE JUMP JUMPDEST PUSH2 0x7DD DUP4 PUSH2 0x33F JUMP JUMPDEST DUP5 ADD SWAP1 POP SWAP4 SWAP3 POP POP POP JUMP JUMPDEST PUSH0 PUSH1 0x40 DUP3 ADD SWAP1 POP DUP2 DUP2 SUB PUSH0 DUP4 ADD MSTORE PUSH2 0x801 DUP2 DUP6 DUP8 PUSH2 0x7BC JUMP JUMPDEST SWAP1 POP PUSH2 0x810 PUSH1 0x20 DUP4 ADD DUP5 PUSH2 0x390 JUMP JUMPDEST SWAP5 SWAP4 POP POP POP POP JUMP INVALID LOG2 PUSH5 0x6970667358 0x22 SLT KECCAK256 MLOAD 0xC9 0xDF 0xA9 0xB2 SELFBALANCE 0xE9 0x2E XOR SGT PUSH32 0x54211A2FAC2ED10A754837F58A1A3593ED497071B64736F6C634300081E0033 "
				},
				"gasEstimates": {
					"creation": {
						"codeDepositCost": "425200",
						"executionCost": "459",
						"totalCost": "425659"
					},
					"external": {
						"getProfile(address)": "infinite",
						"setProfile(string,uint256)": "infinite"
					}
				},
				"methodIdentifiers": {
					"getProfile(address)": "0f53a470",
					"setProfile(string,uint256)": "625fc535"
				}
			},
			"storageLayout": {
				"storage": [
					{
						"astId": 11,
						"contract": "contracts/SimpleStorage.sol:SimpleStorage",
						"label": "profiles",
						"offset": 0,
						"slot": "0",
						"type": "t_mapping(t_address,t_struct(Profile)6_storage)"
					}
				],
				"types": {
					"t_address": {
						"encoding": "inplace",
						"label": "address",
						"numberOfBytes": "20"
					},
					"t_mapping(t_address,t_struct(Profile)6_storage)": {
						"encoding": "mapping",
						"key": "t_address",
						"label": "mapping(address => struct SimpleStorage.Profile)",
						"numberOfBytes": "32",
						"value": "t_struct(Profile)6_storage"
					},
					"t_string_storage": {
						"encoding": "bytes",
						"label": "string",
						"numberOfBytes": "32"
					},
					"t_struct(Profile)6_storage": {
						"encoding": "inplace",
						"label": "struct SimpleStorage.Profile",
						"members": [
							{
								"astId": 3,
								"contract": "contracts/SimpleStorage.sol:SimpleStorage",
								"label": "name",
								"offset": 0,
								"slot": "0",
								"type": "t_string_storage"
							},
							{
								"astId": 5,
								"contract": "contracts/SimpleStorage.sol:SimpleStorage",
								"label": "age",
								"offset": 0,
								"slot": "1",
								"type": "t_uint256"
							}
						],
						"numberOfBytes": "64"
					},
					"t_uint256": {
						"encoding": "inplace",
						"label": "uint256",
						"numberOfBytes": "32"
					}
				}
			},
			"userdoc": {
				"kind": "user",
				"methods": {},
				"version": 1
			}
		}
	}
}