{
	"contracts/SimpleStorage.sol": {
		"SimpleStorage": {
			"abi": [
				{
					"anonymous": false,
					"inputs": [
						{
							"indexed": true,
							"internalType": "address",
							"name": "user",
							"type": "address"
						},
						{
							"indexed": false,
							"internalType": "string",
							"name": "name",
							"type": "string"
						},
						{
							"indexed": false,
							"internalType": "uint256",
							"name": "age",
							"type": "uint256"
						}
					],
					"name": "ProfileUpdated",
					"type": "event"
				},
				{
					"inputs": [
						{
							"internalType": "address",
							"name": "_user",
							"type": "address"
						}
					],
					"name": "getProfile",
					"outputs": [
						{
							"internalType": "string",
							"name": "",
							"type": "string"
						},
						{
							"internalType": "uint256",
							"name": "",
							"type": "uint256"
						}
					],
					"stateMutability": "view",
					"type": "function"
				},
				{
					"inputs": [
						{
							"internalType": "string",
							"name": "_name",
							"type": "string"
						},
						{
							"internalType": "uint256",
							"name": "_age",
							"type": "uint256"
						}
					],
					"name": "setProfile",
					"outputs": [],
					"stateMutability": "nonpayable",
					"type": "function"
				}
			],
			"devdoc": {
				"kind": "dev",
				"methods": {},
				"version": 1
			},
			"evm": {
				"assembly": "    /* \"contracts/SimpleStorage.sol\":61:844  contract SimpleStorage {... */\n  mstore(0x40, 0x80)\n  callvalue\n  dup1\n  iszero\n  tag_1\n  jumpi\n  0x00\n  dup1\n  revert\ntag_1:\n  pop\n  dataSize(sub_0)\n  dup1\n  dataOffset(sub_0)\n  0x00\n  codecopy\n  0x00\n  return\nstop\n\nsub_0: assembly {\n        /* \"contracts/SimpleStorage.sol\":61:844  contract SimpleStorage {... */\n      mstore(0x40, 0x80)\n      callvalue\n      dup1\n      iszero\n      tag_1\n      jumpi\n      0x00\n      dup1\n      revert\n    tag_1:\n      pop\n      jumpi(tag_2, lt(calldatasize, 0x04))\n      shr(0xe0, calldataload(0x00))\n      dup1\n      0x0f53a470\n      eq\n      tag_3\n      jumpi\n      dup1\n      0x625fc535\n      eq\n      tag_4\n      jumpi\n    tag_2:\n      0x00\n      dup1\n      revert\n        /* \"contracts/SimpleStorage.sol\":673:841  function getProfile(address _user) external view returns (string memory, uint256) {... */\n    tag_3:\n      tag_5\n      0x04\n      dup1\n      calldatasize\n      sub\n      dup2\n      add\n      swap1\n      tag_6\n      swap2\n      swap1\n      tag_7\n      jump\t// in\n    tag_6:\n      tag_8\n      jump\t// in\n    tag_5:\n      mload(0x40)\n      tag_9\n      swap3\n      swap2\n      swap1\n      tag_10\n      jump\t// in\n    tag_9:\n      mload(0x40)\n      dup1\n      swap2\n      sub\n      swap1\n      return\n        /* \"contracts/SimpleStorage.sol\":436:619  function setProfile(string calldata _name, uint256 _age) external {... */\n    tag_4:\n      tag_11\n      0x04\n      dup1\n      calldatasize\n      sub\n      dup2\n      add\n      swap1\n      tag_12\n      swap2\n      swap1\n      tag_13\n      jump\t// in\n    tag_12:\n      tag_14\n      jump\t// in\n    tag_11:\n      stop\n        /* \"contracts/SimpleStorage.sol\":673:841  function getProfile(address _user) external view returns (string memory, uint256) {... */\n    tag_8:\n        /* \"contracts/SimpleStorage.sol\":731:744  string memory */\n      0x60\n        /* \"contracts/SimpleStorage.sol\":746:753  uint256 */\n      0x00\n        /* \"contracts/SimpleStorage.sol\":766:782  Profile memory p */\n      dup1\n        /* \"contracts/SimpleStorage.sol\":785:793  profiles */\n      0x00\n        /* \"contracts/SimpleStorage.sol\":785:800  profiles[_user] */\n      dup1\n        /* \"contracts/SimpleStorage.sol\":794:799  _user */\n      dup6\n        /* \"contracts/SimpleStorage.sol\":785:800  profiles[_user] */\n      0xffffffffffffffffffffffffffffffffffffffff\n      and\n      0xffffffffffffffffffffffffffffffffffffffff\n      and\n      dup2\n      mstore\n      0x20\n      add\n      swap1\n      dup2\n      mstore\n      0x20\n      add\n      0x00\n      keccak256\n        /* \"contracts/SimpleStorage.sol\":766:800  Profile memory p = profiles[_user] */\n      mload(0x40)\n      dup1\n      0x40\n      add\n      0x40\n      mstore\n      swap1\n      dup2\n      0x00\n      dup3\n      add\n      dup1\n      sload\n      tag_16\n      swap1\n      tag_17\n      jump\t// in\n    tag_16:\n      dup1\n      0x1f\n      add\n      0x20\n      dup1\n      swap2\n      div\n      mul\n      0x20\n      add\n      mload(0x40)\n      swap1\n      dup2\n      add\n      0x40\n      mstore\n      dup1\n      swap3\n      swap2\n      swap1\n      dup2\n      dup2\n      mstore\n      0x20\n      add\n      dup3\n      dup1\n      sload\n      tag_18\n      swap1\n      tag_17\n      jump\t// in\n    tag_18:\n      dup1\n      iszero\n      tag_19\n      jumpi\n      dup1\n      0x1f\n      lt\n      tag_20\n      jumpi\n      0x0100\n      dup1\n      dup4\n      sload\n      div\n      mul\n      dup4\n      mstore\n      swap2\n      0x20\n      add\n      swap2\n      jump(tag_19)\n    tag_20:\n      dup3\n      add\n      swap2\n      swap1\n      0x00\n      mstore\n      keccak256(0x00, 0x20)\n      swap1\n    tag_21:\n      dup2\n      sload\n      dup2\n      mstore\n      swap1\n      0x01\n      add\n      swap1\n      0x20\n      add\n      dup1\n      dup4\n      gt\n      tag_21\n      jumpi\n      dup3\n      swap1\n      sub\n      0x1f\n      and\n      dup3\n      add\n      swap2\n    tag_19:\n      pop\n      pop\n      pop\n      pop\n      pop\n      dup2\n      mstore\n      0x20\n      add\n      0x01\n      dup3\n      add\n      sload\n      dup2\n      mstore\n      pop\n      pop\n      swap1\n      pop\n        /* \"contracts/SimpleStorage.sol\":819:820  p */\n      dup1\n        /* \"contracts/SimpleStorage.sol\":819:825  p.name */\n      0x00\n      add\n      mload\n        /* \"contracts/SimpleStorage.sol\":827:828  p */\n      dup2\n        /* \"contracts/SimpleStorage.sol\":827:832  p.age */\n      0x20\n      add\n      mload\n        /* \"contracts/SimpleStorage.sol\":811:833  return (p.name, p.age) */\n      swap3\n      pop\n      swap3\n      pop\n      pop\n        /* \"contracts/SimpleStorage.sol\":673:841  function getProfile(address _user) external view returns (string memory, uint256) {... */\n      swap2\n      pop\n      swap2\n      jump\t// out\n        /* \"contracts/SimpleStorage.sol\":436:619  function setProfile(string calldata _name, uint256 _age) external {... */\n    tag_14:\n        /* \"contracts/SimpleStorage.sol\":536:556  Profile(_name, _age) */\n      mload(0x40)\n      dup1\n      0x40\n      add\n      0x40\n      mstore\n      dup1\n        /* \"contracts/SimpleStorage.sol\":544:549  _name */\n      dup5\n      dup5\n        /* \"contracts/SimpleStorage.sol\":536:556  Profile(_name, _age) */\n      dup1\n      dup1\n      0x1f\n      add\n      0x20\n      dup1\n      swap2\n      div\n      mul\n      0x20\n      add\n      mload(0x40)\n      swap1\n      dup2\n      add\n      0x40\n      mstore\n      dup1\n      swap4\n      swap3\n      swap2\n      swap1\n      dup2\n      dup2\n      mstore\n      0x20\n      add\n      dup4\n      dup4\n      dup1\n      dup3\n      dup5\n      calldatacopy\n      0x00\n      dup2\n      dup5\n      add\n      mstore\n      not(0x1f)\n      0x1f\n      dup3\n      add\n      and\n      swap1\n      pop\n      dup1\n      dup4\n      add\n      swap3\n      pop\n      pop\n      pop\n      pop\n      pop\n      pop\n      pop\n      dup2\n      mstore\n      0x20\n      add\n        /* \"contracts/SimpleStorage.sol\":551:555  _age */\n      dup3\n        /* \"contracts/SimpleStorage.sol\":536:556  Profile(_name, _age) */\n      dup2\n      mstore\n      pop\n        /* \"contracts/SimpleStorage.sol\":513:521  profiles */\n      0x00\n        /* \"contracts/SimpleStorage.sol\":513:533  profiles[msg.sender] */\n      dup1\n        /* \"contracts/SimpleStorage.sol\":522:532  msg.sender */\n      caller\n        /* \"contracts/SimpleStorage.sol\":513:533  profiles[msg.sender] */\n      0xffffffffffffffffffffffffffffffffffffffff\n      and\n      0xffffffffffffffffffffffffffffffffffffffff\n      and\n      dup2\n      mstore\n      0x20\n      add\n      swap1\n      dup2\n      mstore\n      0x20\n      add\n      0x00\n      keccak256\n        /* \"contracts/SimpleStorage.sol\":513:556  profiles[msg.sender] = Profile(_name, _age) */\n      0x00\n      dup3\n      add\n      mload\n      dup2\n      0x00\n      add\n      swap1\n      dup2\n      tag_23\n      swap2\n      swap1\n      tag_24\n      jump\t// in\n    tag_23:\n      pop\n      0x20\n      dup3\n      add\n      mload\n      dup2\n      0x01\n      add\n      sstore\n      swap1\n      pop\n      pop\n        /* \"contracts/SimpleStorage.sol\":587:597  msg.sender */\n      caller\n        /* \"contracts/SimpleStorage.sol\":572:611  ProfileUpdated(msg.sender, _name, _age) */\n      0xffffffffffffffffffffffffffffffffffffffff\n      and\n      0xdcb94c0b2c025b0736b4b62b1c595f2ca7ad4c711eada6026d477e87de9cca08\n        /* \"contracts/SimpleStorage.sol\":599:604  _name */\n      dup5\n      dup5\n        /* \"contracts/SimpleStorage.sol\":606:610  _age */\n      dup5\n        /* \"contracts/SimpleStorage.sol\":572:611  ProfileUpdated(msg.sender, _name, _age) */\n      mload(0x40)\n      tag_25\n      swap4\n      swap3\n      swap2\n      swap1\n      tag_26\n      jump\t// in\n    tag_25:\n      mload(0x40)\n      dup1\n      swap2\n      sub\n      swap1\n      log2\n        /* \"contracts/SimpleStorage.sol\":436:619  function setProfile(string calldata _name, uint256 _age) external {... */\n      pop\n      pop\n      pop\n      jump\t// out\n        /* \"#utility.yul\":88:205   */\n    tag_28:\n        /* \"#utility.yul\":197:198   */\n      0x00\n        /* \"#utility.yul\":194:195   */\n      dup1\n        /* \"#utility.yul\":187:199   */\n      revert\n        /* \"#utility.yul\":211:328   */\n    tag_29:\n        /* \"#utility.yul\":320:321   */\n      0x00\n        /* \"#utility.yul\":317:318   */\n      dup1\n        /* \"#utility.yul\":310:322   */\n      revert\n        /* \"#utility.yul\":334:460   */\n    tag_30:\n        /* \"#utility.yul\":371:378   */\n      0x00\n        /* \"#utility.yul\":411:453   */\n      0xffffffffffffffffffffffffffffffffffffffff\n        /* \"#utility.yul\":404:409   */\n      dup3\n        /* \"#utility.yul\":400:454   */\n      and\n        /* \"#utility.yul\":389:454   */\n      swap1\n      pop\n        /* \"#utility.yul\":334:460   */\n      swap2\n      swap1\n      pop\n      jump\t// out\n        /* \"#utility.yul\":466:562   */\n    tag_31:\n        /* \"#utility.yul\":503:510   */\n      0x00\n        /* \"#utility.yul\":532:556   */\n      tag_72\n        /* \"#utility.yul\":550:555   */\n      dup3\n        /* \"#utility.yul\":532:556   */\n      tag_30\n      jump\t// in\n    tag_72:\n        /* \"#utility.yul\":521:556   */\n      swap1\n      pop\n        /* \"#utility.yul\":466:562   */\n      swap2\n      swap1\n      pop\n      jump\t// out\n        /* \"#utility.yul\":568:690   */\n    tag_32:\n        /* \"#utility.yul\":641:665   */\n      tag_74\n        /* \"#utility.yul\":659:664   */\n      dup2\n        /* \"#utility.yul\":641:665   */\n      tag_31\n      jump\t// in\n    tag_74:\n        /* \"#utility.yul\":634:639   */\n      dup2\n        /* \"#utility.yul\":631:666   */\n      eq\n        /* \"#utility.yul\":621:684   */\n      tag_75\n      jumpi\n        /* \"#utility.yul\":680:681   */\n      0x00\n        /* \"#utility.yul\":677:678   */\n      dup1\n        /* \"#utility.yul\":670:682   */\n      revert\n        /* \"#utility.yul\":621:684   */\n    tag_75:\n        /* \"#utility.yul\":568:690   */\n      pop\n      jump\t// out\n        /* \"#utility.yul\":696:835   */\n    tag_33:\n        /* \"#utility.yul\":742:747   */\n      0x00\n        /* \"#utility.yul\":780:786   */\n      dup2\n        /* \"#utility.yul\":767:787   */\n      calldataload\n        /* \"#utility.yul\":758:787   */\n      swap1\n      pop\n        /* \"#utility.yul\":796:829   */\n      tag_77\n        /* \"#utility.yul\":823:828   */\n      dup2\n        /* \"#utility.yul\":796:829   */\n      tag_32\n      jump\t// in\n    tag_77:\n        /* \"#utility.yul\":696:835   */\n      swap3\n      swap2\n      pop\n      pop\n      jump\t// out\n        /* \"#utility.yul\":841:1170   */\n    tag_7:\n        /* \"#utility.yul\":900:906   */\n      0x00\n        /* \"#utility.yul\":949:951   */\n      0x20\n        /* \"#utility.yul\":937:946   */\n      dup3\n        /* \"#utility.yul\":928:935   */\n      dup5\n        /* \"#utility.yul\":924:947   */\n      sub\n        /* \"#utility.yul\":920:952   */\n      slt\n        /* \"#utility.yul\":917:1036   */\n      iszero\n      tag_79\n      jumpi\n        /* \"#utility.yul\":955:1034   */\n      tag_80\n      tag_28\n      jump\t// in\n    tag_80:\n        /* \"#utility.yul\":917:1036   */\n    tag_79:\n        /* \"#utility.yul\":1075:1076   */\n      0x00\n        /* \"#utility.yul\":1100:1153   */\n      tag_81\n        /* \"#utility.yul\":1145:1152   */\n      dup5\n        /* \"#utility.yul\":1136:1142   */\n      dup3\n        /* \"#utility.yul\":1125:1134   */\n      dup6\n        /* \"#utility.yul\":1121:1143   */\n      add\n        /* \"#utility.yul\":1100:1153   */\n      tag_33\n      jump\t// in\n    tag_81:\n        /* \"#utility.yul\":1090:1153   */\n      swap2\n      pop\n        /* \"#utility.yul\":1046:1163   */\n      pop\n        /* \"#utility.yul\":841:1170   */\n      swap3\n      swap2\n      pop\n      pop\n      jump\t// out\n        /* \"#utility.yul\":1176:1275   */\n    tag_34:\n        /* \"#utility.yul\":1228:1234   */\n      0x00\n        /* \"#utility.yul\":1262:1267   */\n      dup2\n        /* \"#utility.yul\":1256:1268   */\n      mload\n        /* \"#utility.yul\":1246:1268   */\n      swap1\n      pop\n        /* \"#utility.yul\":1176:1275   */\n      swap2\n      swap1\n      pop\n      jump\t// out\n        /* \"#utility.yul\":1281:1450   */\n    tag_35:\n        /* \"#utility.yul\":1365:1376   */\n      0x00\n        /* \"#utility.yul\":1399:1405   */\n      dup3\n        /* \"#utility.yul\":1394:1397   */\n      dup3\n        /* \"#utility.yul\":1387:1406   */\n      mstore\n        /* \"#utility.yul\":1439:1443   */\n      0x20\n        /* \"#utility.yul\":1434:1437   */\n      dup3\n        /* \"#utility.yul\":1430:1444   */\n      add\n        /* \"#utility.yul\":1415:1444   */\n      swap1\n      pop\n        /* \"#utility.yul\":1281:1450   */\n      swap3\n      swap2\n      pop\n      pop\n      jump\t// out\n        /* \"#utility.yul\":1456:1702   */\n    tag_36:\n        /* \"#utility.yul\":1537:1538   */\n      0x00\n        /* \"#utility.yul\":1547:1660   */\n    tag_85:\n        /* \"#utility.yul\":1561:1567   */\n      dup4\n        /* \"#utility.yul\":1558:1559   */\n      dup2\n        /* \"#utility.yul\":1555:1568   */\n      lt\n        /* \"#utility.yul\":1547:1660   */\n      iszero\n      tag_87\n      jumpi\n        /* \"#utility.yul\":1646:1647   */\n      dup1\n        /* \"#utility.yul\":1641:1644   */\n      dup3\n        /* \"#utility.yul\":1637:1648   */\n      add\n        /* \"#utility.yul\":1631:1649   */\n      mload\n        /* \"#utility.yul\":1627:1628   */\n      dup2\n        /* \"#utility.yul\":1622:1625   */\n      dup5\n        /* \"#utility.yul\":1618:1629   */\n      add\n        /* \"#utility.yul\":1611:1650   */\n      mstore\n        /* \"#utility.yul\":1583:1585   */\n      0x20\n        /* \"#utility.yul\":1580:1581   */\n      dup2\n        /* \"#utility.yul\":1576:1586   */\n      add\n        /* \"#utility.yul\":1571:1586   */\n      swap1\n      pop\n        /* \"#utility.yul\":1547:1660   */\n      jump(tag_85)\n    tag_87:\n        /* \"#utility.yul\":1694:1695   */\n      0x00\n        /* \"#utility.yul\":1685:1691   */\n      dup5\n        /* \"#utility.yul\":1680:1683   */\n      dup5\n        /* \"#utility.yul\":1676:1692   */\n      add\n        /* \"#utility.yul\":1669:1696   */\n      mstore\n        /* \"#utility.yul\":1518:1702   */\n      pop\n        /* \"#utility.yul\":1456:1702   */\n      pop\n      pop\n      pop\n      jump\t// out\n        /* \"#utility.yul\":1708:1810   */\n    tag_37:\n        /* \"#utility.yul\":1749:1755   */\n      0x00\n        /* \"#utility.yul\":1800:1802   */\n      0x1f\n        /* \"#utility.yul\":1796:1803   */\n      not\n        /* \"#utility.yul\":1791:1793   */\n      0x1f\n        /* \"#utility.yul\":1784:1789   */\n      dup4\n        /* \"#utility.yul\":1780:1794   */\n      add\n        /* \"#utility.yul\":1776:1804   */\n      and\n        /* \"#utility.yul\":1766:1804   */\n      swap1\n      pop\n        /* \"#utility.yul\":1708:1810   */\n      swap2\n      swap1\n      pop\n      jump\t// out\n        /* \"#utility.yul\":1816:2193   */\n    tag_38:\n        /* \"#utility.yul\":1904:1907   */\n      0x00\n        /* \"#utility.yul\":1932:1971   */\n      tag_90\n        /* \"#utility.yul\":1965:1970   */\n      dup3\n        /* \"#utility.yul\":1932:1971   */\n      tag_34\n      jump\t// in\n    tag_90:\n        /* \"#utility.yul\":1987:2058   */\n      tag_91\n        /* \"#utility.yul\":2051:2057   */\n      dup2\n        /* \"#utility.yul\":2046:2049   */\n      dup6\n        /* \"#utility.yul\":1987:2058   */\n      tag_35\n      jump\t// in\n    tag_91:\n        /* \"#utility.yul\":1980:2058   */\n      swap4\n      pop\n        /* \"#utility.yul\":2067:2132   */\n      tag_92\n        /* \"#utility.yul\":2125:2131   */\n      dup2\n        /* \"#utility.yul\":2120:2123   */\n      dup6\n        /* \"#utility.yul\":2113:2117   */\n      0x20\n        /* \"#utility.yul\":2106:2111   */\n      dup7\n        /* \"#utility.yul\":2102:2118   */\n      add\n        /* \"#utility.yul\":2067:2132   */\n      tag_36\n      jump\t// in\n    tag_92:\n        /* \"#utility.yul\":2157:2186   */\n      tag_93\n        /* \"#utility.yul\":2179:2185   */\n      dup2\n        /* \"#utility.yul\":2157:2186   */\n      tag_37\n      jump\t// in\n    tag_93:\n        /* \"#utility.yul\":2152:2155   */\n      dup5\n        /* \"#utility.yul\":2148:2187   */\n      add\n        /* \"#utility.yul\":2141:2187   */\n      swap2\n      pop\n        /* \"#utility.yul\":1908:2193   */\n      pop\n        /* \"#utility.yul\":1816:2193   */\n      swap3\n      swap2\n      pop\n      pop\n      jump\t// out\n        /* \"#utility.yul\":2199:2276   */\n    tag_39:\n        /* \"#utility.yul\":2236:2243   */\n      0x00\n        /* \"#utility.yul\":2265:2270   */\n      dup2\n        /* \"#utility.yul\":2254:2270   */\n      swap1\n      pop\n        /* \"#utility.yul\":2199:2276   */\n      swap2\n      swap1\n      pop\n      jump\t// out\n        /* \"#utility.yul\":2282:2400   */\n    tag_40:\n        /* \"#utility.yul\":2369:2393   */\n      tag_96\n        /* \"#utility.yul\":2387:2392   */\n      dup2\n        /* \"#utility.yul\":2369:2393   */\n      tag_39\n      jump\t// in\n    tag_96:\n        /* \"#utility.yul\":2364:2367   */\n      dup3\n        /* \"#utility.yul\":2357:2394   */\n      mstore\n        /* \"#utility.yul\":2282:2400   */\n      pop\n      pop\n      jump\t// out\n        /* \"#utility.yul\":2406:2829   */\n    tag_10:\n        /* \"#utility.yul\":2547:2551   */\n      0x00\n        /* \"#utility.yul\":2585:2587   */\n      0x40\n        /* \"#utility.yul\":2574:2583   */\n      dup3\n        /* \"#utility.yul\":2570:2588   */\n      add\n        /* \"#utility.yul\":2562:2588   */\n      swap1\n      pop\n        /* \"#utility.yul\":2634:2643   */\n      dup2\n        /* \"#utility.yul\":2628:2632   */\n      dup2\n        /* \"#utility.yul\":2624:2644   */\n      sub\n        /* \"#utility.yul\":2620:2621   */\n      0x00\n        /* \"#utility.yul\":2609:2618   */\n      dup4\n        /* \"#utility.yul\":2605:2622   */\n      add\n        /* \"#utility.yul\":2598:2645   */\n      mstore\n        /* \"#utility.yul\":2662:2740   */\n      tag_98\n        /* \"#utility.yul\":2735:2739   */\n      dup2\n        /* \"#utility.yul\":2726:2732   */\n      dup6\n        /* \"#utility.yul\":2662:2740   */\n      tag_38\n      jump\t// in\n    tag_98:\n        /* \"#utility.yul\":2654:2740   */\n      swap1\n      pop\n        /* \"#utility.yul\":2750:2822   */\n      tag_99\n        /* \"#utility.yul\":2818:2820   */\n      0x20\n        /* \"#utility.yul\":2807:2816   */\n      dup4\n        /* \"#utility.yul\":2803:2821   */\n      add\n        /* \"#utility.yul\":2794:2800   */\n      dup5\n        /* \"#utility.yul\":2750:2822   */\n      tag_40\n      jump\t// in\n    tag_99:\n        /* \"#utility.yul\":2406:2829   */\n      swap4\n      swap3\n      pop\n      pop\n      pop\n      jump\t// out\n        /* \"#utility.yul\":2835:2952   */\n    tag_41:\n        /* \"#utility.yul\":2944:2945   */\n      0x00\n        /* \"#utility.yul\":2941:2942   */\n      dup1\n        /* \"#utility.yul\":2934:2946   */\n      revert\n        /* \"#utility.yul\":2958:3075   */\n    tag_42:\n        /* \"#utility.yul\":3067:3068   */\n      0x00\n        /* \"#utility.yul\":3064:3065   */\n      dup1\n        /* \"#utility.yul\":3057:3069   */\n      revert\n        /* \"#utility.yul\":3081:3198   */\n    tag_43:\n        /* \"#utility.yul\":3190:3191   */\n      0x00\n        /* \"#utility.yul\":3187:3188   */\n      dup1\n        /* \"#utility.yul\":3180:3192   */\n      revert\n        /* \"#utility.yul\":3218:3771   */\n    tag_44:\n        /* \"#utility.yul\":3276:3284   */\n      0x00\n        /* \"#utility.yul\":3286:3292   */\n      dup1\n        /* \"#utility.yul\":3336:3339   */\n      dup4\n        /* \"#utility.yul\":3329:3333   */\n      0x1f\n        /* \"#utility.yul\":3321:3327   */\n      dup5\n        /* \"#utility.yul\":3317:3334   */\n      add\n        /* \"#utility.yul\":3313:3340   */\n      slt\n        /* \"#utility.yul\":3303:3425   */\n      tag_104\n      jumpi\n        /* \"#utility.yul\":3344:3423   */\n      tag_105\n      tag_41\n      jump\t// in\n    tag_105:\n        /* \"#utility.yul\":3303:3425   */\n    tag_104:\n        /* \"#utility.yul\":3457:3463   */\n      dup3\n        /* \"#utility.yul\":3444:3464   */\n      calldataload\n        /* \"#utility.yul\":3434:3464   */\n      swap1\n      pop\n        /* \"#utility.yul\":3487:3505   */\n      0xffffffffffffffff\n        /* \"#utility.yul\":3479:3485   */\n      dup2\n        /* \"#utility.yul\":3476:3506   */\n      gt\n        /* \"#utility.yul\":3473:3590   */\n      iszero\n      tag_106\n      jumpi\n        /* \"#utility.yul\":3509:3588   */\n      tag_107\n      tag_42\n      jump\t// in\n    tag_107:\n        /* \"#utility.yul\":3473:3590   */\n    tag_106:\n        /* \"#utility.yul\":3623:3627   */\n      0x20\n        /* \"#utility.yul\":3615:3621   */\n      dup4\n        /* \"#utility.yul\":3611:3628   */\n      add\n        /* \"#utility.yul\":3599:3628   */\n      swap2\n      pop\n        /* \"#utility.yul\":3677:3680   */\n      dup4\n        /* \"#utility.yul\":3669:3673   */\n      0x01\n        /* \"#utility.yul\":3661:3667   */\n      dup3\n        /* \"#utility.yul\":3657:3674   */\n      mul\n        /* \"#utility.yul\":3647:3655   */\n      dup4\n        /* \"#utility.yul\":3643:3675   */\n      add\n        /* \"#utility.yul\":3640:3681   */\n      gt\n        /* \"#utility.yul\":3637:3765   */\n      iszero\n      tag_108\n      jumpi\n        /* \"#utility.yul\":3684:3763   */\n      tag_109\n      tag_43\n      jump\t// in\n    tag_109:\n        /* \"#utility.yul\":3637:3765   */\n    tag_108:\n        /* \"#utility.yul\":3218:3771   */\n      swap3\n      pop\n      swap3\n      swap1\n      pop\n      jump\t// out\n        /* \"#utility.yul\":3777:3899   */\n    tag_45:\n        /* \"#utility.yul\":3850:3874   */\n      tag_111\n        /* \"#utility.yul\":3868:3873   */\n      dup2\n        /* \"#utility.yul\":3850:3874   */\n      tag_39\n      jump\t// in\n    tag_111:\n        /* \"#utility.yul\":3843:3848   */\n      dup2\n        /* \"#utility.yul\":3840:3875   */\n      eq\n        /* \"#utility.yul\":3830:3893   */\n      tag_112\n      jumpi\n        /* \"#utility.yul\":3889:3890   */\n      0x00\n        /* \"#utility.yul\":3886:3887   */\n      dup1\n        /* \"#utility.yul\":3879:3891   */\n      revert\n        /* \"#utility.yul\":3830:3893   */\n    tag_112:\n        /* \"#utility.yul\":3777:3899   */\n      pop\n      jump\t// out\n        /* \"#utility.yul\":3905:4044   */\n    tag_46:\n        /* \"#utility.yul\":3951:3956   */\n      0x00\n        /* \"#utility.yul\":3989:3995   */\n      dup2\n        /* \"#utility.yul\":3976:3996   */\n      calldataload\n        /* \"#utility.yul\":3967:3996   */\n      swap1\n      pop\n        /* \"#utility.yul\":4005:4038   */\n      tag_114\n        /* \"#utility.yul\":4032:4037   */\n      dup2\n        /* \"#utility.yul\":4005:4038   */\n      tag_45\n      jump\t// in\n    tag_114:\n        /* \"#utility.yul\":3905:4044   */\n      swap3\n      swap2\n      pop\n      pop\n      jump\t// out\n        /* \"#utility.yul\":4050:4724   */\n    tag_13:\n        /* \"#utility.yul\":4130:4136   */\n      0x00\n        /* \"#utility.yul\":4138:4144   */\n      dup1\n        /* \"#utility.yul\":4146:4152   */\n      0x00\n        /* \"#utility.yul\":4195:4197   */\n      0x40\n        /* \"#utility.yul\":4183:4192   */\n      dup5\n        /* \"#utility.yul\":4174:4181   */\n      dup7\n        /* \"#utility.yul\":4170:4193   */\n      sub\n        /* \"#utility.yul\":4166:4198   */\n      slt\n        /* \"#utility.yul\":4163:4282   */\n      iszero\n      tag_116\n      jumpi\n        /* \"#utility.yul\":4201:4280   */\n      tag_117\n      tag_28\n      jump\t// in\n    tag_117:\n        /* \"#utility.yul\":4163:4282   */\n    tag_116:\n        /* \"#utility.yul\":4349:4350   */\n      0x00\n        /* \"#utility.yul\":4338:4347   */\n      dup5\n        /* \"#utility.yul\":4334:4351   */\n      add\n        /* \"#utility.yul\":4321:4352   */\n      calldataload\n        /* \"#utility.yul\":4379:4397   */\n      0xffffffffffffffff\n        /* \"#utility.yul\":4371:4377   */\n      dup2\n        /* \"#utility.yul\":4368:4398   */\n      gt\n        /* \"#utility.yul\":4365:4482   */\n      iszero\n      tag_118\n      jumpi\n        /* \"#utility.yul\":4401:4480   */\n      tag_119\n      tag_29\n      jump\t// in\n    tag_119:\n        /* \"#utility.yul\":4365:4482   */\n    tag_118:\n        /* \"#utility.yul\":4514:4579   */\n      tag_120\n        /* \"#utility.yul\":4571:4578   */\n      dup7\n        /* \"#utility.yul\":4562:4568   */\n      dup3\n        /* \"#utility.yul\":4551:4560   */\n      dup8\n        /* \"#utility.yul\":4547:4569   */\n      add\n        /* \"#utility.yul\":4514:4579   */\n      tag_44\n      jump\t// in\n    tag_120:\n        /* \"#utility.yul\":4496:4579   */\n      swap4\n      pop\n      swap4\n      pop\n        /* \"#utility.yul\":4292:4589   */\n      pop\n        /* \"#utility.yul\":4628:4630   */\n      0x20\n        /* \"#utility.yul\":4654:4707   */\n      tag_121\n        /* \"#utility.yul\":4699:4706   */\n      dup7\n        /* \"#utility.yul\":4690:4696   */\n      dup3\n        /* \"#utility.yul\":4679:4688   */\n      dup8\n        /* \"#utility.yul\":4675:4697   */\n      add\n        /* \"#utility.yul\":4654:4707   */\n      tag_46\n      jump\t// in\n    tag_121:\n        /* \"#utility.yul\":4644:4707   */\n      swap2\n      pop\n        /* \"#utility.yul\":4599:4717   */\n      pop\n        /* \"#utility.yul\":4050:4724   */\n      swap3\n      pop\n      swap3\n      pop\n      swap3\n      jump\t// out\n        /* \"#utility.yul\":4730:4910   */\n    tag_47:\n        /* \"#utility.yul\":4778:4855   */\n      0x4e487b7100000000000000000000000000000000000000000000000000000000\n        /* \"#utility.yul\":4775:4776   */\n      0x00\n        /* \"#utility.yul\":4768:4856   */\n      mstore\n        /* \"#utility.yul\":4875:4879   */\n      0x22\n        /* \"#utility.yul\":4872:4873   */\n      0x04\n        /* \"#utility.yul\":4865:4880   */\n      mstore\n        /* \"#utility.yul\":4899:4903   */\n      0x24\n        /* \"#utility.yul\":4896:4897   */\n      0x00\n        /* \"#utility.yul\":4889:4904   */\n      revert\n        /* \"#utility.yul\":4916:5236   */\n    tag_17:\n        /* \"#utility.yul\":4960:4966   */\n      0x00\n        /* \"#utility.yul\":4997:4998   */\n      0x02\n        /* \"#utility.yul\":4991:4995   */\n      dup3\n        /* \"#utility.yul\":4987:4999   */\n      div\n        /* \"#utility.yul\":4977:4999   */\n      swap1\n      pop\n        /* \"#utility.yul\":5044:5045   */\n      0x01\n        /* \"#utility.yul\":5038:5042   */\n      dup3\n        /* \"#utility.yul\":5034:5046   */\n      and\n        /* \"#utility.yul\":5065:5083   */\n      dup1\n        /* \"#utility.yul\":5055:5136   */\n      tag_124\n      jumpi\n        /* \"#utility.yul\":5121:5125   */\n      0x7f\n        /* \"#utility.yul\":5113:5119   */\n      dup3\n        /* \"#utility.yul\":5109:5126   */\n      and\n        /* \"#utility.yul\":5099:5126   */\n      swap2\n      pop\n        /* \"#utility.yul\":5055:5136   */\n    tag_124:\n        /* \"#utility.yul\":5183:5185   */\n      0x20\n        /* \"#utility.yul\":5175:5181   */\n      dup3\n        /* \"#utility.yul\":5172:5186   */\n      lt\n        /* \"#utility.yul\":5152:5170   */\n      dup2\n        /* \"#utility.yul\":5149:5187   */\n      sub\n        /* \"#utility.yul\":5146:5230   */\n      tag_125\n      jumpi\n        /* \"#utility.yul\":5202:5220   */\n      tag_126\n      tag_47\n      jump\t// in\n    tag_126:\n        /* \"#utility.yul\":5146:5230   */\n    tag_125:\n        /* \"#utility.yul\":4967:5236   */\n      pop\n        /* \"#utility.yul\":4916:5236   */\n      swap2\n      swap1\n      pop\n      jump\t// out\n        /* \"#utility.yul\":5242:5422   */\n    tag_48:\n        /* \"#utility.yul\":5290:5367   */\n      0x4e487b7100000000000000000000000000000000000000000000000000000000\n        /* \"#utility.yul\":5287:5288   */\n      0x00\n        /* \"#utility.yul\":5280:5368   */\n      mstore\n        /* \"#utility.yul\":5387:5391   */\n      0x41\n        /* \"#utility.yul\":5384:5385   */\n      0x04\n        /* \"#utility.yul\":5377:5392   */\n      mstore\n        /* \"#utility.yul\":5411:5415   */\n      0x24\n        /* \"#utility.yul\":5408:5409   */\n      0x00\n        /* \"#utility.yul\":5401:5416   */\n      revert\n        /* \"#utility.yul\":5428:5569   */\n    tag_49:\n        /* \"#utility.yul\":5477:5481   */\n      0x00\n        /* \"#utility.yul\":5500:5503   */\n      dup2\n        /* \"#utility.yul\":5492:5503   */\n      swap1\n      pop\n        /* \"#utility.yul\":5523:5526   */\n      dup2\n        /* \"#utility.yul\":5520:5521   */\n      0x00\n        /* \"#utility.yul\":5513:5527   */\n      mstore\n        /* \"#utility.yul\":5557:5561   */\n      0x20\n        /* \"#utility.yul\":5554:5555   */\n      0x00\n        /* \"#utility.yul\":5544:5562   */\n      keccak256\n        /* \"#utility.yul\":5536:5562   */\n      swap1\n      pop\n        /* \"#utility.yul\":5428:5569   */\n      swap2\n      swap1\n      pop\n      jump\t// out\n        /* \"#utility.yul\":5575:5668   */\n    tag_50:\n        /* \"#utility.yul\":5612:5618   */\n      0x00\n        /* \"#utility.yul\":5659:5661   */\n      0x20\n        /* \"#utility.yul\":5654:5656   */\n      0x1f\n        /* \"#utility.yul\":5647:5652   */\n      dup4\n        /* \"#utility.yul\":5643:5657   */\n      add\n        /* \"#utility.yul\":5639:5662   */\n      div\n        /* \"#utility.yul\":5629:5662   */\n      swap1\n      pop\n        /* \"#utility.yul\":5575:5668   */\n      swap2\n      swap1\n      pop\n      jump\t// out\n        /* \"#utility.yul\":5674:5781   */\n    tag_51:\n        /* \"#utility.yul\":5718:5726   */\n      0x00\n        /* \"#utility.yul\":5768:5773   */\n      dup3\n        /* \"#utility.yul\":5762:5766   */\n      dup3\n        /* \"#utility.yul\":5758:5774   */\n      shl\n        /* \"#utility.yul\":5737:5774   */\n      swap1\n      pop\n        /* \"#utility.yul\":5674:5781   */\n      swap3\n      swap2\n      pop\n      pop\n      jump\t// out\n        /* \"#utility.yul\":5787:6180   */\n    tag_52:\n        /* \"#utility.yul\":5856:5862   */\n      0x00\n        /* \"#utility.yul\":5906:5907   */\n      0x08\n        /* \"#utility.yul\":5894:5904   */\n      dup4\n        /* \"#utility.yul\":5890:5908   */\n      mul\n        /* \"#utility.yul\":5929:6026   */\n      tag_132\n        /* \"#utility.yul\":5959:6025   */\n      0xffffffffffffffffffffffffffffffffffffffffffffffffffffffffffffffff\n        /* \"#utility.yul\":5948:5957   */\n      dup3\n        /* \"#utility.yul\":5929:6026   */\n      tag_51\n      jump\t// in\n    tag_132:\n        /* \"#utility.yul\":6047:6086   */\n      tag_133\n        /* \"#utility.yul\":6077:6085   */\n      dup7\n        /* \"#utility.yul\":6066:6075   */\n      dup4\n        /* \"#utility.yul\":6047:6086   */\n      tag_51\n      jump\t// in\n    tag_133:\n        /* \"#utility.yul\":6035:6086   */\n      swap6\n      pop\n        /* \"#utility.yul\":6119:6123   */\n      dup1\n        /* \"#utility.yul\":6115:6124   */\n      not\n        /* \"#utility.yul\":6108:6113   */\n      dup5\n        /* \"#utility.yul\":6104:6125   */\n      and\n        /* \"#utility.yul\":6095:6125   */\n      swap4\n      pop\n        /* \"#utility.yul\":6168:6172   */\n      dup1\n        /* \"#utility.yul\":6158:6166   */\n      dup7\n        /* \"#utility.yul\":6154:6173   */\n      and\n        /* \"#utility.yul\":6147:6152   */\n      dup5\n        /* \"#utility.yul\":6144:6174   */\n      or\n        /* \"#utility.yul\":6134:6174   */\n      swap3\n      pop\n        /* \"#utility.yul\":5863:6180   */\n      pop\n      pop\n        /* \"#utility.yul\":5787:6180   */\n      swap4\n      swap3\n      pop\n      pop\n      pop\n      jump\t// out\n        /* \"#utility.yul\":6186:6246   */\n    tag_53:\n        /* \"#utility.yul\":6214:6217   */\n      0x00\n        /* \"#utility.yul\":6235:6240   */\n      dup2\n        /* \"#utility.yul\":6228:6240   */\n      swap1\n      pop\n        /* \"#utility.yul\":6186:6246   */\n      swap2\n      swap1\n      pop\n      jump\t// out\n        /* \"#utility.yul\":6252:6394   */\n    tag_54:\n        /* \"#utility.yul\":6302:6311   */\n      0x00\n        /* \"#utility.yul\":6335:6388   */\n      tag_136\n        /* \"#utility.yul\":6353:6387   */\n      tag_137\n        /* \"#utility.yul\":6362:6386   */\n      tag_138\n        /* \"#utility.yul\":6380:6385   */\n      dup5\n        /* \"#utility.yul\":6362:6386   */\n      tag_39\n      jump\t// in\n    tag_138:\n        /* \"#utility.yul\":6353:6387   */\n      tag_53\n      jump\t// in\n    tag_137:\n        /* \"#utility.yul\":6335:6388   */\n      tag_39\n      jump\t// in\n    tag_136:\n        /* \"#utility.yul\":6322:6388   */\n      swap1\n      pop\n        /* \"#utility.yul\":6252:6394   */\n      swap2\n      swap1\n      pop\n      jump\t// out\n        /* \"#utility.yul\":6400:6475   */\n    tag_55:\n        /* \"#utility.yul\":6443:6446   */\n      0x00\n        /* \"#utility.yul\":6464:6469   */\n      dup2\n        /* \"#utility.yul\":6457:6469   */\n      swap1\n      pop\n        /* \"#utility.yul\":6400:6475   */\n      swap2\n      swap1\n      pop\n      jump\t// out\n        /* \"#utility.yul\":6481:6750   */\n    tag_56:\n        /* \"#utility.yul\":6591:6630   */\n      tag_141\n        /* \"#utility.yul\":6622:6629   */\n      dup4\n        /* \"#utility.yul\":6591:6630   */\n      tag_54\n      jump\t// in\n    tag_141:\n        /* \"#utility.yul\":6652:6743   */\n      tag_142\n        /* \"#utility.yul\":6701:6742   */\n      tag_143\n        /* \"#utility.yul\":6725:6741   */\n      dup3\n        /* \"#utility.yul\":6701:6742   */\n      tag_55\n      jump\t// in\n    tag_143:\n        /* \"#utility.yul\":6693:6699   */\n      dup5\n        /* \"#utility.yul\":6686:6690   */\n      dup5\n        /* \"#utility.yul\":6680:6691   */\n      sload\n        /* \"#utility.yul\":6652:6743   */\n      tag_52\n      jump\t// in\n    tag_142:\n        /* \"#utility.yul\":6646:6650   */\n      dup3\n        /* \"#utility.yul\":6639:6744   */\n      sstore\n        /* \"#utility.yul\":6557:6750   */\n      pop\n        /* \"#utility.yul\":6481:6750   */\n      pop\n      pop\n      pop\n      jump\t// out\n        /* \"#utility.yul\":6756:6829   */\n    tag_57:\n        /* \"#utility.yul\":6801:6804   */\n      0x00\n        /* \"#utility.yul\":6756:6829   */\n      swap1\n      jump\t// out\n        /* \"#utility.yul\":6835:7024   */\n    tag_58:\n        /* \"#utility.yul\":6912:6944   */\n      tag_146\n      tag_57\n      jump\t// in\n    tag_146:\n        /* \"#utility.yul\":6953:7018   */\n      tag_147\n        /* \"#utility.yul\":7011:7017   */\n      dup2\n        /* \"#utility.yul\":7003:7009   */\n      dup5\n        /* \"#utility.yul\":6997:7001   */\n      dup5\n        /* \"#utility.yul\":6953:7018   */\n      tag_56\n      jump\t// in\n    tag_147:\n        /* \"#utility.yul\":6888:7024   */\n      pop\n        /* \"#utility.yul\":6835:7024   */\n      pop\n      pop\n      jump\t// out\n        /* \"#utility.yul\":7030:7216   */\n    tag_59:\n        /* \"#utility.yul\":7090:7210   */\n    tag_149:\n        /* \"#utility.yul\":7107:7110   */\n      dup2\n        /* \"#utility.yul\":7100:7105   */\n      dup2\n        /* \"#utility.yul\":7097:7111   */\n      lt\n        /* \"#utility.yul\":7090:7210   */\n      iszero\n      tag_151\n      jumpi\n        /* \"#utility.yul\":7161:7200   */\n      tag_152\n        /* \"#utility.yul\":7198:7199   */\n      0x00\n        /* \"#utility.yul\":7191:7196   */\n      dup3\n        /* \"#utility.yul\":7161:7200   */\n      tag_58\n      jump\t// in\n    tag_152:\n        /* \"#utility.yul\":7134:7135   */\n      0x01\n        /* \"#utility.yul\":7127:7132   */\n      dup2\n        /* \"#utility.yul\":7123:7136   */\n      add\n        /* \"#utility.yul\":7114:7136   */\n      swap1\n      pop\n        /* \"#utility.yul\":7090:7210   */\n      jump(tag_149)\n    tag_151:\n        /* \"#utility.yul\":7030:7216   */\n      pop\n      pop\n      jump\t// out\n        /* \"#utility.yul\":7222:7765   */\n    tag_60:\n        /* \"#utility.yul\":7323:7325   */\n      0x1f\n        /* \"#utility.yul\":7318:7321   */\n      dup3\n        /* \"#utility.yul\":7315:7326   */\n      gt\n        /* \"#utility.yul\":7312:7758   */\n      iszero\n      tag_154\n      jumpi\n        /* \"#utility.yul\":7357:7395   */\n      tag_155\n        /* \"#utility.yul\":7389:7394   */\n      dup2\n        /* \"#utility.yul\":7357:7395   */\n      tag_49\n      jump\t// in\n    tag_155:\n        /* \"#utility.yul\":7441:7470   */\n      tag_156\n        /* \"#utility.yul\":7459:7469   */\n      dup5\n        /* \"#utility.yul\":7441:7470   */\n      tag_50\n      jump\t// in\n    tag_156:\n        /* \"#utility.yul\":7431:7439   */\n      dup2\n        /* \"#utility.yul\":7427:7471   */\n      add\n        /* \"#utility.yul\":7624:7626   */\n      0x20\n        /* \"#utility.yul\":7612:7622   */\n      dup6\n        /* \"#utility.yul\":7609:7627   */\n      lt\n        /* \"#utility.yul\":7606:7655   */\n      iszero\n      tag_157\n      jumpi\n        /* \"#utility.yul\":7645:7653   */\n      dup2\n        /* \"#utility.yul\":7630:7653   */\n      swap1\n      pop\n        /* \"#utility.yul\":7606:7655   */\n    tag_157:\n        /* \"#utility.yul\":7668:7748   */\n      tag_158\n        /* \"#utility.yul\":7724:7746   */\n      tag_159\n        /* \"#utility.yul\":7742:7745   */\n      dup6\n        /* \"#utility.yul\":7724:7746   */\n      tag_50\n      jump\t// in\n    tag_159:\n        /* \"#utility.yul\":7714:7722   */\n      dup4\n        /* \"#utility.yul\":7710:7747   */\n      add\n        /* \"#utility.yul\":7697:7708   */\n      dup3\n        /* \"#utility.yul\":7668:7748   */\n      tag_59\n      jump\t// in\n    tag_158:\n        /* \"#utility.yul\":7327:7758   */\n      pop\n      pop\n        /* \"#utility.yul\":7312:7758   */\n    tag_154:\n        /* \"#utility.yul\":7222:7765   */\n      pop\n      pop\n      pop\n      jump\t// out\n        /* \"#utility.yul\":7771:7888   */\n    tag_61:\n        /* \"#utility.yul\":7825:7833   */\n      0x00\n        /* \"#utility.yul\":7875:7880   */\n      dup3\n        /* \"#utility.yul\":7869:7873   */\n      dup3\n        /* \"#utility.yul\":7865:7881   */\n      shr\n        /* \"#utility.yul\":7844:7881   */\n      swap1\n      pop\n        /* \"#utility.yul\":7771:7888   */\n      swap3\n      swap2\n      pop\n      pop\n      jump\t// out\n        /* \"#utility.yul\":7894:8063   */\n    tag_62:\n        /* \"#utility.yul\":7938:7944   */\n      0x00\n        /* \"#utility.yul\":7971:8022   */\n      tag_162\n        /* \"#utility.yul\":8019:8020   */\n      0x00\n        /* \"#utility.yul\":8015:8021   */\n      not\n        /* \"#utility.yul\":8007:8012   */\n      dup5\n        /* \"#utility.yul\":8004:8005   */\n      0x08\n        /* \"#utility.yul\":8000:8013   */\n      mul\n        /* \"#utility.yul\":7971:8022   */\n      tag_61\n      jump\t// in\n    tag_162:\n        /* \"#utility.yul\":7967:8023   */\n      not\n        /* \"#utility.yul\":8052:8056   */\n      dup1\n        /* \"#utility.yul\":8046:8050   */\n      dup4\n        /* \"#utility.yul\":8042:8057   */\n      and\n        /* \"#utility.yul\":8032:8057   */\n      swap2\n      pop\n        /* \"#utility.yul\":7945:8063   */\n      pop\n        /* \"#utility.yul\":7894:8063   */\n      swap3\n      swap2\n      pop\n      pop\n      jump\t// out\n        /* \"#utility.yul\":8068:8363   */\n    tag_63:\n        /* \"#utility.yul\":8144:8148   */\n      0x00\n        /* \"#utility.yul\":8290:8319   */\n      tag_164\n        /* \"#utility.yul\":8315:8318   */\n      dup4\n        /* \"#utility.yul\":8309:8313   */\n      dup4\n        /* \"#utility.yul\":8290:8319   */\n      tag_62\n      jump\t// in\n    tag_164:\n        /* \"#utility.yul\":8282:8319   */\n      swap2\n      pop\n        /* \"#utility.yul\":8352:8355   */\n      dup3\n        /* \"#utility.yul\":8349:8350   */\n      0x02\n        /* \"#utility.yul\":8345:8356   */\n      mul\n        /* \"#utility.yul\":8339:8343   */\n      dup3\n        /* \"#utility.yul\":8336:8357   */\n      or\n        /* \"#utility.yul\":8328:8357   */\n      swap1\n      pop\n        /* \"#utility.yul\":8068:8363   */\n      swap3\n      swap2\n      pop\n      pop\n      jump\t// out\n        /* \"#utility.yul\":8368:9763   */\n    tag_24:\n        /* \"#utility.yul\":8485:8522   */\n      tag_166\n        /* \"#utility.yul\":8518:8521   */\n      dup3\n        /* \"#utility.yul\":8485:8522   */\n      tag_34\n      jump\t// in\n    tag_166:\n        /* \"#utility.yul\":8587:8605   */\n      0xffffffffffffffff\n        /* \"#utility.yul\":8579:8585   */\n      dup2\n        /* \"#utility.yul\":8576:8606   */\n      gt\n        /* \"#utility.yul\":8573:8629   */\n      iszero\n      tag_167\n      jumpi\n        /* \"#utility.yul\":8609:8627   */\n      tag_168\n      tag_48\n      jump\t// in\n    tag_168:\n        /* \"#utility.yul\":8573:8629   */\n    tag_167:\n        /* \"#utility.yul\":8653:8691   */\n      tag_169\n        /* \"#utility.yul\":8685:8689   */\n      dup3\n        /* \"#utility.yul\":8679:8690   */\n      sload\n        /* \"#utility.yul\":8653:8691   */\n      tag_17\n      jump\t// in\n    tag_169:\n        /* \"#utility.yul\":8738:8805   */\n      tag_170\n        /* \"#utility.yul\":8798:8804   */\n      dup3\n        /* \"#utility.yul\":8790:8796   */\n      dup3\n        /* \"#utility.yul\":8784:8788   */\n      dup6\n        /* \"#utility.yul\":8738:8805   */\n      tag_60\n      jump\t// in\n    tag_170:\n        /* \"#utility.yul\":8832:8833   */\n      0x00\n        /* \"#utility.yul\":8856:8860   */\n      0x20\n        /* \"#utility.yul\":8843:8860   */\n      swap1\n      pop\n        /* \"#utility.yul\":8888:8890   */\n      0x1f\n        /* \"#utility.yul\":8880:8886   */\n      dup4\n        /* \"#utility.yul\":8877:8891   */\n      gt\n        /* \"#utility.yul\":8905:8906   */\n      0x01\n        /* \"#utility.yul\":8900:9518   */\n      dup2\n      eq\n      tag_172\n      jumpi\n        /* \"#utility.yul\":9562:9563   */\n      0x00\n        /* \"#utility.yul\":9579:9585   */\n      dup5\n        /* \"#utility.yul\":9576:9653   */\n      iszero\n      tag_173\n      jumpi\n        /* \"#utility.yul\":9628:9637   */\n      dup3\n        /* \"#utility.yul\":9623:9626   */\n      dup8\n        /* \"#utility.yul\":9619:9638   */\n      add\n        /* \"#utility.yul\":9613:9639   */\n      mload\n        /* \"#utility.yul\":9604:9639   */\n      swap1\n      pop\n        /* \"#utility.yul\":9576:9653   */\n    tag_173:\n        /* \"#utility.yul\":9679:9746   */\n      tag_174\n        /* \"#utility.yul\":9739:9745   */\n      dup6\n        /* \"#utility.yul\":9732:9737   */\n      dup3\n        /* \"#utility.yul\":9679:9746   */\n      tag_63\n      jump\t// in\n    tag_174:\n        /* \"#utility.yul\":9673:9677   */\n      dup7\n        /* \"#utility.yul\":9666:9747   */\n      sstore\n        /* \"#utility.yul\":9535:9757   */\n      pop\n        /* \"#utility.yul\":8870:9757   */\n      jump(tag_171)\n        /* \"#utility.yul\":8900:9518   */\n    tag_172:\n        /* \"#utility.yul\":8952:8956   */\n      0x1f\n        /* \"#utility.yul\":8948:8957   */\n      not\n        /* \"#utility.yul\":8940:8946   */\n      dup5\n        /* \"#utility.yul\":8936:8958   */\n      and\n        /* \"#utility.yul\":8986:9023   */\n      tag_175\n        /* \"#utility.yul\":9018:9022   */\n      dup7\n        /* \"#utility.yul\":8986:9023   */\n      tag_49\n      jump\t// in\n    tag_175:\n        /* \"#utility.yul\":9045:9046   */\n      0x00\n        /* \"#utility.yul\":9059:9267   */\n    tag_176:\n        /* \"#utility.yul\":9073:9080   */\n      dup3\n        /* \"#utility.yul\":9070:9071   */\n      dup2\n        /* \"#utility.yul\":9067:9081   */\n      lt\n        /* \"#utility.yul\":9059:9267   */\n      iszero\n      tag_178\n      jumpi\n        /* \"#utility.yul\":9152:9161   */\n      dup5\n        /* \"#utility.yul\":9147:9150   */\n      dup10\n        /* \"#utility.yul\":9143:9162   */\n      add\n        /* \"#utility.yul\":9137:9163   */\n      mload\n        /* \"#utility.yul\":9129:9135   */\n      dup3\n        /* \"#utility.yul\":9122:9164   */\n      sstore\n        /* \"#utility.yul\":9203:9204   */\n      0x01\n        /* \"#utility.yul\":9195:9201   */\n      dup3\n        /* \"#utility.yul\":9191:9205   */\n      add\n        /* \"#utility.yul\":9181:9205   */\n      swap2\n      pop\n        /* \"#utility.yul\":9250:9252   */\n      0x20\n        /* \"#utility.yul\":9239:9248   */\n      dup6\n        /* \"#utility.yul\":9235:9253   */\n      add\n        /* \"#utility.yul\":9222:9253   */\n      swap5\n      pop\n        /* \"#utility.yul\":9096:9100   */\n      0x20\n        /* \"#utility.yul\":9093:9094   */\n      dup2\n        /* \"#utility.yul\":9089:9101   */\n      add\n        /* \"#utility.yul\":9084:9101   */\n      swap1\n      pop\n        /* \"#utility.yul\":9059:9267   */\n      jump(tag_176)\n    tag_178:\n        /* \"#utility.yul\":9295:9301   */\n      dup7\n        /* \"#utility.yul\":9286:9293   */\n      dup4\n        /* \"#utility.yul\":9283:9302   */\n      lt\n        /* \"#utility.yul\":9280:9459   */\n      iszero\n      tag_179\n      jumpi\n        /* \"#utility.yul\":9353:9362   */\n      dup5\n        /* \"#utility.yul\":9348:9351   */\n      dup10\n        /* \"#utility.yul\":9344:9363   */\n      add\n        /* \"#utility.yul\":9338:9364   */\n      mload\n        /* \"#utility.yul\":9396:9444   */\n      tag_180\n        /* \"#utility.yul\":9438:9442   */\n      0x1f\n        /* \"#utility.yul\":9430:9436   */\n      dup10\n        /* \"#utility.yul\":9426:9443   */\n      and\n        /* \"#utility.yul\":9415:9424   */\n      dup3\n        /* \"#utility.yul\":9396:9444   */\n      tag_62\n      jump\t// in\n    tag_180:\n        /* \"#utility.yul\":9388:9394   */\n      dup4\n        /* \"#utility.yul\":9381:9445   */\n      sstore\n        /* \"#utility.yul\":9303:9459   */\n      pop\n        /* \"#utility.yul\":9280:9459   */\n    tag_179:\n        /* \"#utility.yul\":9505:9506   */\n      0x01\n        /* \"#utility.yul\":9501:9502   */\n      0x02\n        /* \"#utility.yul\":9493:9499   */\n      dup9\n        /* \"#utility.yul\":9489:9503   */\n      mul\n        /* \"#utility.yul\":9485:9507   */\n      add\n        /* \"#utility.yul\":9479:9483   */\n      dup9\n        /* \"#utility.yul\":9472:9508   */\n      sstore\n        /* \"#utility.yul\":8907:9518   */\n      pop\n      pop\n      pop\n        /* \"#utility.yul\":8870:9757   */\n    tag_171:\n      pop\n        /* \"#utility.yul\":8460:9763   */\n      pop\n      pop\n      pop\n        /* \"#utility.yul\":8368:9763   */\n      pop\n      pop\n      jump\t// out\n        /* \"#utility.yul\":9769:9915   */\n    tag_64:\n        /* \"#utility.yul\":9866:9872   */\n      dup3\n        /* \"#utility.yul\":9861:9864   */\n      dup2\n        /* \"#utility.yul\":9856:9859   */\n      dup4\n        /* \"#utility.yul\":9843:9873   */\n      calldatacopy\n        /* \"#utility.yul\":9907:9908   */\n      0x00\n        /* \"#utility.yul\":9898:9904   */\n      dup4\n        /* \"#utility.yul\":9893:9896   */\n      dup4\n        /* \"#utility.yul\":9889:9905   */\n      add\n        /* \"#utility.yul\":9882:9909   */\n      mstore\n        /* \"#utility.yul\":9769:9915   */\n      pop\n      pop\n      pop\n      jump\t// out\n        /* \"#utility.yul\":9945:10262   */\n    tag_65:\n        /* \"#utility.yul\":10043:10046   */\n      0x00\n        /* \"#utility.yul\":10064:10135   */\n      tag_183\n        /* \"#utility.yul\":10128:10134   */\n      dup4\n        /* \"#utility.yul\":10123:10126   */\n      dup6\n        /* \"#utility.yul\":10064:10135   */\n      tag_35\n      jump\t// in\n    tag_183:\n        /* \"#utility.yul\":10057:10135   */\n      swap4\n      pop\n        /* \"#utility.yul\":10145:10201   */\n      tag_184\n        /* \"#utility.yul\":10194:10200   */\n      dup4\n        /* \"#utility.yul\":10189:10192   */\n      dup6\n        /* \"#utility.yul\":10182:10187   */\n      dup5\n        /* \"#utility.yul\":10145:10201   */\n      tag_64\n      jump\t// in\n    tag_184:\n        /* \"#utility.yul\":10226:10255   */\n      tag_185\n        /* \"#utility.yul\":10248:10254   */\n      dup4\n        /* \"#utility.yul\":10226:10255   */\n      tag_37\n      jump\t// in\n    tag_185:\n        /* \"#utility.yul\":10221:10224   */\n      dup5\n        /* \"#utility.yul\":10217:10256   */\n      add\n        /* \"#utility.yul\":10210:10256   */\n      swap1\n      pop\n        /* \"#utility.yul\":9945:10262   */\n      swap4\n      swap3\n      pop\n      pop\n      pop\n      jump\t// out\n        /* \"#utility.yul\":10268:10711   */\n    tag_26:\n        /* \"#utility.yul\":10419:10423   */\n      0x00\n        /* \"#utility.yul\":10457:10459   */\n      0x40\n        /* \"#utility.yul\":10446:10455   */\n      dup3\n        /* \"#utility.yul\":10442:10460   */\n      add\n        /* \"#utility.yul\":10434:10460   */\n      swap1\n      pop\n        /* \"#utility.yul\":10506:10515   */\n      dup2\n        /* \"#utility.yul\":10500:10504   */\n      dup2\n        /* \"#utility.yul\":10496:10516   */\n      sub\n        /* \"#utility.yul\":10492:10493   */\n      0x00\n        /* \"#utility.yul\":10481:10490   */\n      dup4\n        /* \"#utility.yul\":10477:10494   */\n      add\n        /* \"#utility.yul\":10470:10517   */\n      mstore\n        /* \"#utility.yul\":10534:10622   */\n      tag_187\n        /* \"#utility.yul\":10617:10621   */\n      dup2\n        /* \"#utility.yul\":10608:10614   */\n      dup6\n        /* \"#utility.yul\":10600:10606   */\n      dup8\n        /* \"#utility.yul\":10534:10622   */\n      tag_65\n      jump\t// in\n    tag_187:\n        /* \"#utility.yul\":10526:10622   */\n      swap1\n      pop\n        /* \"#utility.yul\":10632:10704   */\n      tag_188\n        /* \"#utility.yul\":10700:10702   */\n      0x20\n        /* \"#utility.yul\":10689:10698   */\n      dup4\n        /* \"#utility.yul\":10685:10703   */\n      add\n        /* \"#utility.yul\":10676:10682   */\n      dup5\n        /* \"#utility.yul\":10632:10704   */\n      tag_40\n      jump\t// in\n    tag_188:\n        /* \"#utility.yul\":10268:10711   */\n      swap5\n      swap4\n      pop\n      pop\n      pop\n      pop\n      jump\t// out\n\n    auxdata: 0xa2646970667358221220b149775524af8245a4876f47928a00d4ba7ca5721baaacfba7e4bff84ef6947564736f6c63430008180033\n}\n",
				"bytecode": {
					"linkReferences": {},
					"object": "608060405234801561000f575f80fd5b506108658061001d5f395ff3fe608060405234801561000f575f80fd5b5060043610610034575f3560e01c80630f53a47014610038578063625fc53514610069575b5f80fd5b610052600480360381019061004d91906102ec565b610085565b6040516100609291906103b9565b60405180910390f35b610083600480360381019061007e9190610472565b61017e565b005b60605f805f808573ffffffffffffffffffffffffffffffffffffffff1673ffffffffffffffffffffffffffffffffffffffff1681526020019081526020015f206040518060400160405290815f820180546100df906104fc565b80601f016020809104026020016040519081016040528092919081815260200182805461010b906104fc565b80156101565780601f1061012d57610100808354040283529160200191610156565b820191905f5260205f20905b81548152906001019060200180831161013957829003601f168201915b505050505081526020016001820154815250509050805f015181602001519250925050915091565b604051806040016040528084848080601f0160208091040260200160405190810160405280939291908181526020018383808284375f81840152601f19601f820116905080830192505050505050508152602001828152505f803373ffffffffffffffffffffffffffffffffffffffff1673ffffffffffffffffffffffffffffffffffffffff1681526020019081526020015f205f820151815f01908161022591906106f6565b50602082015181600101559050503373ffffffffffffffffffffffffffffffffffffffff167fdcb94c0b2c025b0736b4b62b1c595f2ca7ad4c711eada6026d477e87de9cca0884848460405161027d939291906107ff565b60405180910390a2505050565b5f80fd5b5f80fd5b5f73ffffffffffffffffffffffffffffffffffffffff82169050919050565b5f6102bb82610292565b9050919050565b6102cb816102b1565b81146102d5575f80fd5b50565b5f813590506102e6816102c2565b92915050565b5f602082840312156103015761030061028a565b5b5f61030e848285016102d8565b91505092915050565b5f81519050919050565b5f82825260208201905092915050565b5f5b8381101561034e578082015181840152602081019050610333565b5f8484015250505050565b5f601f19601f8301169050919050565b5f61037382610317565b61037d8185610321565b935061038d818560208601610331565b61039681610359565b840191505092915050565b5f819050919050565b6103b3816103a1565b82525050565b5f6040820190508181035f8301526103d18185610369565b90506103e060208301846103aa565b9392505050565b5f80fd5b5f80fd5b5f80fd5b5f8083601f840112610408576104076103e7565b5b8235905067ffffffffffffffff811115610425576104246103eb565b5b602083019150836001820283011115610441576104406103ef565b5b9250929050565b610451816103a1565b811461045b575f80fd5b50565b5f8135905061046c81610448565b92915050565b5f805f604084860312156104895761048861028a565b5b5f84013567ffffffffffffffff8111156104a6576104a561028e565b5b6104b2868287016103f3565b935093505060206104c58682870161045e565b9150509250925092565b7f4e487b71000000000000000000000000000000000000000000000000000000005f52602260045260245ffd5b5f600282049050600182168061051357607f821691505b602082108103610526576105256104cf565b5b50919050565b7f4e487b71000000000000000000000000000000000000000000000000000000005f52604160045260245ffd5b5f819050815f5260205f209050919050565b5f6020601f8301049050919050565b5f82821b905092915050565b5f600883026105b57fffffffffffffffffffffffffffffffffffffffffffffffffffffffffffffffff8261057a565b6105bf868361057a565b95508019841693508086168417925050509392505050565b5f819050919050565b5f6105fa6105f56105f0846103a1565b6105d7565b6103a1565b9050919050565b5f819050919050565b610613836105e0565b61062761061f82610601565b848454610586565b825550505050565b5f90565b61063b61062f565b61064681848461060a565b505050565b5b818110156106695761065e5f82610633565b60018101905061064c565b5050565b601f8211156106ae5761067f81610559565b6106888461056b565b81016020851015610697578190505b6106ab6106a38561056b565b83018261064b565b50505b505050565b5f82821c905092915050565b5f6106ce5f19846008026106b3565b1980831691505092915050565b5f6106e683836106bf565b9150826002028217905092915050565b6106ff82610317565b67ffffffffffffffff8111156107185761071761052c565b5b61072282546104fc565b61072d82828561066d565b5f60209050601f83116001811461075e575f841561074c578287015190505b61075685826106db565b8655506107bd565b601f19841661076c86610559565b5f5b828110156107935784890151825560018201915060208501945060208101905061076e565b868310156107b057848901516107ac601f8916826106bf565b8355505b6001600288020188555050505b505050505050565b828183375f83830152505050565b5f6107de8385610321565b93506107eb8385846107c5565b6107f483610359565b840190509392505050565b5f6040820190508181035f8301526108188185876107d3565b905061082760208301846103aa565b94935050505056fea2646970667358221220b149775524af8245a4876f47928a00d4ba7ca5721baaacfba7e4bff84ef6947564736f6c63430008180033",
					"opcodes": "PUSH1 0x80 PUSH1 0x40 MSTORE CALLVALUE DUP1 ISZERO PUSH2 0xF JUMPI PUSH0 DUP1 REVERT JUMPDEST POP PUSH2 0x865 DUP1 PUSH2 0x1D PUSH0 CODECOPY PUSH0 RETURN INVALID PUSH1 0x80 PUSH1 0x40 MSTORE CALLVALUE DUP1 ISZERO PUSH2 0xF JUMPI PUSH0 DUP1 REVERT JUMPDEST POP PUSH1 0x4 CALLDATASIZE LT PUSH2 0x34 JUMPI PUSH0 CALLDATALOAD PUSH1 0xE0 SHR DUP1 PUSH4 0xF53A470 EQ PUSH2 0x38 JUMPI DUP1 PUSH4 0x625FC535 EQ PUSH2 0x69 JUMPI JUMPDEST PUSH0 DUP1 REVERT JUMPDEST PUSH2 0x52 PUSH1 0x4 DUP1 CALLDATASIZE SUB DUP2 ADD SWAP1 PUSH2 0x4D SWAP2 SWAP1 PUSH2 0x2EC JUMP JUMPDEST PUSH2 0x85 JUMP JUMPDEST PUSH1 0x40 MLOAD PUSH2 0x60 SWAP3 SWAP2 SWAP1 PUSH2 0x3B9 JUMP JUMPDEST PUSH1 0x40 MLOAD DUP1 SWAP2 SUB SWAP1 RETURN JUMPDEST PUSH2 0x83 PUSH1 0x4 DUP1 CALLDATASIZE SUB DUP2 ADD SWAP1 PUSH2 0x7E SWAP2 SWAP1 PUSH2 0x472 JUMP JUMPDEST PUSH2 0x17E JUMP JUMPDEST STOP JUMPDEST PUSH1 0x60 PUSH0 DUP1 PUSH0 DUP1 DUP6 PUSH20 0xFFFFFFFFFFFFFFFFFFFFFFFFFFFFFFFFFFFFFFFF AND PUSH20 0xFFFFFFFFFFFFFFFFFFFFFFFFFFFFFFFFFFFFFFFF AND DUP2 MSTORE PUSH1 0x20 ADD SWAP1 DUP2 MSTORE PUSH1 0x20 ADD PUSH0 KECCAK256 PUSH1 0x40 MLOAD DUP1 PUSH1 0x40 ADD PUSH1 0x40 MSTORE SWAP1 DUP2 PUSH0 DUP3 ADD DUP1 SLOAD PUSH2 0xDF SWAP1 PUSH2 0x4FC JUMP JUMPDEST DUP1 PUSH1 0x1F ADD PUSH1 0x20 DUP1 SWAP2 DIV MUL PUSH1 0x20 ADD PUSH1 0x40 MLOAD SWAP1 DUP2 ADD PUSH1 0x40 MSTORE DUP1 SWAP3 SWAP2 SWAP1 DUP2 DUP2 MSTORE PUSH1 0x20 ADD DUP3 DUP1 SLOAD PUSH2 0x10B SWAP1 PUSH2 0x4FC JUMP JUMPDEST DUP1 ISZERO PUSH2 0x156 JUMPI DUP1 PUSH1 0x1F LT PUSH2 0x12D JUMPI PUSH2 0x100 DUP1 DUP4 SLOAD DIV MUL DUP4 MSTORE SWAP2 PUSH1 0x20 ADD SWAP2 PUSH2 0x156 JUMP JUMPDEST DUP3 ADD SWAP2 SWAP1 PUSH0 MSTORE PUSH1 0x20 PUSH0 KECCAK256 SWAP1 JUMPDEST DUP2 SLOAD DUP2 MSTORE SWAP1 PUSH1 0x1 ADD SWAP1 PUSH1 0x20 ADD DUP1 DUP4 GT PUSH2 0x139 JUMPI DUP3 SWAP1 SUB PUSH1 0x1F AND DUP3 ADD SWAP2 JUMPDEST POP POP POP POP POP DUP2 MSTORE PUSH1 0x20 ADD PUSH1 0x1 DUP3 ADD SLOAD DUP2 MSTORE POP POP SWAP1 POP DUP1 PUSH0 ADD MLOAD DUP2 PUSH1 0x20 ADD MLOAD SWAP3 POP SWAP3 POP POP SWAP2 POP SWAP2 JUMP JUMPDEST PUSH1 0x40 MLOAD DUP1 PUSH1 0x40 ADD PUSH1 0x40 MSTORE DUP1 DUP5 DUP5 DUP1 DUP1 PUSH1 0x1F ADD PUSH1 0x20 DUP1 SWAP2 DIV MUL PUSH1 0x20 ADD PUSH1 0x40 MLOAD SWAP1 DUP2 ADD PUSH1 0x40 MSTORE DUP1 SWAP4 SWAP3 SWAP2 SWAP1 DUP2 DUP2 MSTORE PUSH1 0x20 ADD DUP4 DUP4 DUP1 DUP3 DUP5 CALLDATACOPY PUSH0 DUP2 DUP5 ADD MSTORE PUSH1 0x1F NOT PUSH1 0x1F DUP3 ADD AND SWAP1 POP DUP1 DUP4 ADD SWAP3 POP POP POP POP POP POP POP DUP2 MSTORE PUSH1 0x20 ADD DUP3 DUP2 MSTORE POP PUSH0 DUP1 CALLER PUSH20 0xFFFFFFFFFFFFFFFFFFFFFFFFFFFFFFFFFFFFFFFF AND PUSH20 0xFFFFFFFFFFFFFFFFFFFFFFFFFFFFFFFFFFFFFFFF AND DUP2 MSTORE PUSH1 0x20 ADD SWAP1 DUP2 MSTORE PUSH1 0x20 ADD PUSH0 KECCAK256 PUSH0 DUP3 ADD MLOAD DUP2 PUSH0 ADD SWAP1 DUP2 PUSH2 0x225 SWAP2 SWAP1 PUSH2 0x6F6 JUMP JUMPDEST POP PUSH1 0x20 DUP3 ADD MLOAD DUP2 PUSH1 0x1 ADD SSTORE SWAP1 POP POP CALLER PUSH20 0xFFFFFFFFFFFFFFFFFFFFFFFFFFFFFFFFFFFFFFFF AND PUSH32 0xDCB94C0B2C025B0736B4B62B1C595F2CA7AD4C711EADA6026D477E87DE9CCA08 DUP5 DUP5 DUP5 PUSH1 0x40 MLOAD PUSH2 0x27D SWAP4 SWAP3 SWAP2 SWAP1 PUSH2 0x7FF JUMP JUMPDEST PUSH1 0x40 MLOAD DUP1 SWAP2 SUB SWAP1 LOG2 POP POP POP JUMP JUMPDEST PUSH0 DUP1 REVERT JUMPDEST PUSH0 DUP1 REVERT JUMPDEST PUSH0 PUSH20 0xFFFFFFFFFFFFFFFFFFFFFFFFFFFFFFFFFFFFFFFF DUP3 AND SWAP1 POP SWAP2 SWAP1 POP JUMP JUMPDEST PUSH0 PUSH2 0x2BB DUP3 PUSH2 0x292 JUMP JUMPDEST SWAP1 POP SWAP2 SWAP1 POP JUMP JUMPDEST PUSH2 0x2CB DUP2 PUSH2 0x2B1 JUMP JUMPDEST DUP2 EQ PUSH2 0x2D5 JUMPI PUSH0 DUP1 REVERT JUMPDEST POP JUMP JUMPDEST PUSH0 DUP2 CALLDATALOAD SWAP1 POP PUSH2 0x2E6 DUP2 PUSH2 0x2C2 JUMP JUMPDEST SWAP3 SWAP2 POP POP JUMP JUMPDEST PUSH0 PUSH1 0x20 DUP3 DUP5 SUB SLT ISZERO PUSH2 0x301 JUMPI PUSH2 0x300 PUSH2 0x28A JUMP JUMPDEST JUMPDEST PUSH0 PUSH2 0x30E DUP5 DUP3 DUP6 ADD PUSH2 0x2D8 JUMP JUMPDEST SWAP2 POP POP SWAP3 SWAP2 POP POP JUMP JUMPDEST PUSH0 DUP2 MLOAD SWAP1 POP SWAP2 SWAP1 POP JUMP JUMPDEST PUSH0 DUP3 DUP3 MSTORE PUSH1 0x20 DUP3 ADD SWAP1 POP SWAP3 SWAP2 POP POP JUMP JUMPDEST PUSH0 JUMPDEST DUP4 DUP2 LT ISZERO PUSH2 0x34E JUMPI DUP1 DUP3 ADD MLOAD DUP2 DUP5 ADD MSTORE PUSH1 0x20 DUP2 ADD SWAP1 POP PUSH2 0x333 JUMP JUMPDEST PUSH0 DUP5 DUP5 ADD MSTORE POP POP POP POP JUMP JUMPDEST PUSH0 PUSH1 0x1F NOT PUSH1 0x1F DUP4 ADD AND SWAP1 POP SWAP2 SWAP1 POP JUMP JUMPDEST PUSH0 PUSH2 0x373 DUP3 PUSH2 0x317 JUMP JUMPDEST PUSH2 0x37D DUP2 DUP6 PUSH2 0x321 JUMP JUMPDEST SWAP4 POP PUSH2 0x38D DUP2 DUP6 PUSH1 0x20 DUP7 ADD PUSH2 0x331 JUMP JUMPDEST PUSH2 0x396 DUP2 PUSH2 0x359 JUMP JUMPDEST DUP5 ADD SWAP2 POP POP SWAP3 SWAP2 POP POP JUMP JUMPDEST PUSH0 DUP2 SWAP1 POP SWAP2 SWAP1 POP JUMP JUMPDEST PUSH2 0x3B3 DUP2 PUSH2 0x3A1 JUMP JUMPDEST DUP3 MSTORE POP POP JUMP JUMPDEST PUSH0 PUSH1 0x40 DUP3 ADD SWAP1 POP DUP2 DUP2 SUB PUSH0 DUP4 ADD MSTORE PUSH2 0x3D1 DUP2 DUP6 PUSH2 0x369 JUMP JUMPDEST SWAP1 POP PUSH2 0x3E0 PUSH1 0x20 DUP4 ADD DUP5 PUSH2 0x3AA JUMP JUMPDEST SWAP4 SWAP3 POP POP POP JUMP JUMPDEST PUSH0 DUP1 REVERT JUMPDEST PUSH0 DUP1 REVERT JUMPDEST PUSH0 DUP1 REVERT JUMPDEST PUSH0 DUP1 DUP4 PUSH1 0x1F DUP5 ADD SLT PUSH2 0x408 JUMPI PUSH2 0x407 PUSH2 0x3E7 JUMP JUMPDEST JUMPDEST DUP3 CALLDATALOAD SWAP1 POP PUSH8 0xFFFFFFFFFFFFFFFF DUP2 GT ISZERO PUSH2 0x425 JUMPI PUSH2 0x424 PUSH2 0x3EB JUMP JUMPDEST JUMPDEST PUSH1 0x20 DUP4 ADD SWAP2 POP DUP4 PUSH1 0x1 DUP3 MUL DUP4 ADD GT ISZERO PUSH2 0x441 JUMPI PUSH2 0x440 PUSH2 0x3EF JUMP JUMPDEST JUMPDEST SWAP3 POP SWAP3 SWAP1 POP JUMP JUMPDEST PUSH2 0x451 DUP2 PUSH2 0x3A1 JUMP JUMPDEST DUP2 EQ PUSH2 0x45B JUMPI PUSH0 DUP1 REVERT JUMPDEST POP JUMP JUMPDEST PUSH0 DUP2 CALLDATALOAD SWAP1 POP PUSH2 0x46C DUP2 PUSH2 0x448 JUMP JUMPDEST SWAP3 SWAP2 POP POP JUMP JUMPDEST PUSH0 DUP1 PUSH0 PUSH1 0x40 DUP5 DUP7 SUB SLT ISZERO PUSH2 0x489 JUMPI PUSH2 0x488 PUSH2 0x28A JUMP JUMPDEST JUMPDEST PUSH0 DUP5 ADD CALLDATALOAD PUSH8 0xFFFFFFFFFFFFFFFF DUP2 GT ISZERO PUSH2 0x4A6 JUMPI PUSH2 0x4A5 PUSH2 0x28E JUMP JUMPDEST JUMPDEST PUSH2 0x4B2 DUP7 DUP3 DUP8 ADD PUSH2 0x3F3 JUMP JUMPDEST SWAP4 POP SWAP4 POP POP PUSH1 0x20 PUSH2 0x4C5 DUP7 DUP3 DUP8 ADD PUSH2 0x45E JUMP JUMPDEST SWAP2 POP POP SWAP3 POP SWAP3 POP SWAP3 JUMP JUMPDEST PUSH32 0x4E487B7100000000000000000000000000000000000000000000000000000000 PUSH0 MSTORE PUSH1 0x22 PUSH1 0x4 MSTORE PUSH1 0x24 PUSH0 REVERT JUMPDEST PUSH0 PUSH1 0x2 DUP3 DIV SWAP1 POP PUSH1 0x1 DUP3 AND DUP1 PUSH2 0x513 JUMPI PUSH1 0x7F DUP3 AND SWAP2 POP JUMPDEST PUSH1 0x20 DUP3 LT DUP2 SUB PUSH2 0x526 JUMPI PUSH2 0x525 PUSH2 0x4CF JUMP JUMPDEST JUMPDEST POP SWAP2 SWAP1 POP JUMP JUMPDEST PUSH32 0x4E487B7100000000000000000000000000000000000000000000000000000000 PUSH0 MSTORE PUSH1 0x41 PUSH1 0x4 MSTORE PUSH1 0x24 PUSH0 REVERT JUMPDEST PUSH0 DUP2 SWAP1 POP DUP2 PUSH0 MSTORE PUSH1 0x20 PUSH0 KECCAK256 SWAP1 POP SWAP2 SWAP1 POP JUMP JUMPDEST PUSH0 PUSH1 0x20 PUSH1 0x1F DUP4 ADD DIV SWAP1 POP SWAP2 SWAP1 POP JUMP JUMPDEST PUSH0 DUP3 DUP3 SHL SWAP1 POP SWAP3 SWAP2 POP POP JUMP JUMPDEST PUSH0 PUSH1 0x8 DUP4 MUL PUSH2 0x5B5 PUSH32 0xFFFFFFFFFFFFFFFFFFFFFFFFFFFFFFFFFFFFFFFFFFFFFFFFFFFFFFFFFFFFFFFF DUP3 PUSH2 0x57A JUMP JUMPDEST PUSH2 0x5BF DUP7 DUP4 PUSH2 0x57A JUMP JUMPDEST SWAP6 POP DUP1 NOT DUP5 AND SWAP4 POP DUP1 DUP7 AND DUP5 OR SWAP3 POP POP POP SWAP4 SWAP3 POP POP POP JUMP JUMPDEST PUSH0 DUP2 SWAP1 POP SWAP2 SWAP1 POP JUMP JUMPDEST PUSH0 PUSH2 0x5FA PUSH2 0x5F5 PUSH2 0x5F0 DUP5 PUSH2 0x3A1 JUMP JUMPDEST PUSH2 0x5D7 JUMP JUMPDEST PUSH2 0x3A1 JUMP JUMPDEST SWAP1 POP SWAP2 SWAP1 POP JUMP JUMPDEST PUSH0 DUP2 SWAP1 POP SWAP2 SWAP1 POP JUMP JUMPDEST PUSH2 0x613 DUP4 PUSH2 0x5E0 JUMP JUMPDEST PUSH2 0x627 PUSH2 0x61F DUP3 PUSH2 0x601 JUMP JUMPDEST DUP5 DUP5 SLOAD PUSH2 0x586 JUMP JUMPDEST DUP3 SSTORE POP POP POP POP JUMP JUMPDEST PUSH0 SWAP1 JUMP JUMPDEST PUSH2 0x63B PUSH2 0x62F JUMP JUMPDEST PUSH2 0x646 DUP2 DUP5 DUP5 PUSH2 0x60A JUMP JUMPDEST POP POP POP JUMP JUMPDEST JUMPDEST DUP2 DUP2 LT ISZERO PUSH2 0x669 JUMPI PUSH2 0x65E PUSH0 DUP3 PUSH2 0x633 JUMP JUMPDEST PUSH1 0x1 DUP2 ADD SWAP1 POP PUSH2 0x64C JUMP JUMPDEST POP POP JUMP JUMPDEST PUSH1 0x1F DUP3 GT ISZERO PUSH2 0x6AE JUMPI PUSH2 0x67F DUP2 PUSH2 0x559 JUMP JUMPDEST PUSH2 0x688 DUP5 PUSH2 0x56B JUMP JUMPDEST DUP2 ADD PUSH1 0x20 DUP6 LT ISZERO PUSH2 0x697 JUMPI DUP2 SWAP1 POP JUMPDEST PUSH2 0x6AB PUSH2 0x6A3 DUP6 PUSH2 0x56B JUMP JUMPDEST DUP4 ADD DUP3 PUSH2 0x64B JUMP JUMPDEST POP POP JUMPDEST POP POP POP JUMP JUMPDEST PUSH0 DUP3 DUP3 SHR SWAP1 POP SWAP3 SWAP2 POP POP JUMP JUMPDEST PUSH0 PUSH2 0x6CE PUSH0 NOT DUP5 PUSH1 0x8 MUL PUSH2 0x6B3 JUMP JUMPDEST NOT DUP1 DUP4 AND SWAP2 POP POP SWAP3 SWAP2 POP POP JUMP JUMPDEST PUSH0 PUSH2 0x6E6 DUP4 DUP4 PUSH2 0x6BF JUMP JUMPDEST SWAP2 POP DUP3 PUSH1 0x2 MUL DUP3 OR SWAP1 POP SWAP3 SWAP2 POP POP JUMP JUMPDEST PUSH2 0x6FF DUP3 PUSH2 0x317 JUMP JUMPDEST PUSH8 0xFFFFFFFFFFFFFFFF DUP2 GT ISZERO PUSH2 0x718 JUMPI PUSH2 0x717 PUSH2 0x52C JUMP JUMPDEST JUMPDEST PUSH2 0x722 DUP3 SLOAD PUSH2 0x4FC JUMP JUMPDEST PUSH2 0x72D DUP3 DUP3 DUP6 PUSH2 0x66D JUMP JUMPDEST PUSH0 PUSH1 0x20 SWAP1 POP PUSH1 0x1F DUP4 GT PUSH1 0x1 DUP2 EQ PUSH2 0x75E JUMPI PUSH0 DUP5 ISZERO PUSH2 0x74C JUMPI DUP3 DUP8 ADD MLOAD SWAP1 POP JUMPDEST PUSH2 0x756 DUP6 DUP3 PUSH2 0x6DB JUMP JUMPDEST DUP7 SSTORE POP PUSH2 0x7BD JUMP JUMPDEST PUSH1 0x1F NOT DUP5 AND PUSH2 0x76C DUP7 PUSH2 0x559 JUMP JUMPDEST PUSH0 JUMPDEST DUP3 DUP2 LT ISZERO PUSH2 0x793 JUMPI DUP5 DUP10 ADD MLOAD DUP3 SSTORE PUSH1 0x1 DUP3 ADD SWAP2 POP PUSH1 0x20 DUP6 ADD SWAP5 POP PUSH1 0x20 DUP2 ADD SWAP1 POP PUSH2 0x76E JUMP JUMPDEST DUP7 DUP4 LT ISZERO PUSH2 0x7B0 JUMPI DUP5 DUP10 ADD MLOAD PUSH2 0x7AC PUSH1 0x1F DUP10 AND DUP3 PUSH2 0x6BF JUMP JUMPDEST DUP4 SSTORE POP JUMPDEST PUSH1 0x1 PUSH1 0x2 DUP9 MUL ADD DUP9 SSTORE POP POP POP JUMPDEST POP POP POP POP POP POP JUMP JUMPDEST DUP3 DUP2 DUP4 CALLDATACOPY PUSH0 DUP4 DUP4 ADD MSTORE POP POP POP JUMP JUMPDEST PUSH0 PUSH2 0x7DE DUP4 DUP6 PUSH2 0x321 JUMP JUMPDEST SWAP4 POP PUSH2 0x7EB DUP4 DUP6 DUP5 PUSH2 0x7C5 JUMP JUMPDEST PUSH2 0x7F4 DUP4 PUSH2 0x359 JUMP JUMPDEST DUP5 ADD SWAP1 POP SWAP4 SWAP3 POP POP POP JUMP JUMPDEST PUSH0 PUSH1 0x40 DUP3 ADD SWAP1 POP DUP2 DUP2 SUB PUSH0 DUP4 ADD MSTORE PUSH2 0x818 DUP2 DUP6 DUP8 PUSH2 0x7D3 JUMP JUMPDEST SWAP1 POP PUSH2 0x827 PUSH1 0x20 DUP4 ADD DUP5 PUSH2 0x3AA JUMP JUMPDEST SWAP5 SWAP4 POP POP POP POP JUMP INVALID LOG2 PUSH5 0x6970667358 0x22 SLT KECCAK256 0xB1 BLOBHASH PUSH24 0x5524AF8245A4876F47928A00D4BA7CA5721BAAACFBA7E4BF 0xF8 0x4E 0xF6 SWAP5 PUSH22 0x64736F6C634300081800330000000000000000000000 "
				},
				"gasEstimates": {
					"creation": {
						"codeDepositCost": "429800",
						"executionCost": "466",
						"totalCost": "430266"
					},
					"external": {
						"getProfile(address)": "infinite",
						"setProfile(string,uint256)": "infinite"
					}
				},
				"methodIdentifiers": {
					"getProfile(address)": "0f53a470",
					"setProfile(string,uint256)": "625fc535"
				}
			},
			"storageLayout": {
				"storage": [
					{
						"astId": 11,
						"contract": "contracts/SimpleStorage.sol:SimpleStorage",
						"label": "profiles",
						"offset": 0,
						"slot": "0",
						"type": "t_mapping(t_address,t_struct(Profile)6_storage)"
					}
				],
				"types": {
					"t_address": {
						"encoding": "inplace",
						"label": "address",
						"numberOfBytes": "20"
					},
					"t_mapping(t_address,t_struct(Profile)6_storage)": {
						"encoding": "mapping",
						"key": "t_address",
						"label": "mapping(address => struct SimpleStorage.Profile)",
						"numberOfBytes": "32",
						"value": "t_struct(Profile)6_storage"
					},
					"t_string_storage": {
						"encoding": "bytes",
						"label": "string",
						"numberOfBytes": "32"
					},
					"t_struct(Profile)6_storage": {
						"encoding": "inplace",
						"label": "struct SimpleStorage.Profile",
						"members": [
							{
								"astId": 3,
								"contract": "contracts/SimpleStorage.sol:SimpleStorage",
								"label": "name",
								"offset": 0,
								"slot": "0",
								"type": "t_string_storage"
							},
							{
								"astId": 5,
								"contract": "contracts/SimpleStorage.sol:SimpleStorage",
								"label": "age",
								"offset": 0,
								"slot": "1",
								"type": "t_uint256"
							}
						],
						"numberOfBytes": "64"
					},
					"t_uint256": {
						"encoding": "inplace",
						"label": "uint256",
						"numberOfBytes": "32"
					}
				}
			},
			"userdoc": {
				"kind": "user",
				"methods": {},
				"version": 1
			}
		}
	}
}